:020000040800F2
:10000000C0A000207903000897420008693D00085D
:1000100095420008B10700088B510008000000005D
:10002000000000000000000000000000B90200080D
:100030004B0900080000000015030008B144000847
:100040009303000893030008930300089303000838
:100050009303000893030008930300089303000828
:100060009303000893030008930300089108000815
:100070009D080008930300089303000893030008F9
:1000800093030008930300089303000893030008F8
:100090009303000851090008930300089303000824
:1000A00093030008794500084D45000893030008B4
:1000B0008D4500089303000893030008930300088C
:1000C00093030008930300089303000893030008B8
:1000D00093030008930300089303000893030008A8
:1000E0009303000893030008930300089303000898
:1000F0009303000893030008930300089303000888
:100100009303000893030008930300089303000877
:100110009303000893030008930300089303000867
:100120009303000893030008930300089303000857
:100130009303000893030008930300089303000847
:100140009303000893030008930300089303000837
:100150009303000893030008930300089303000827
:100160009303000893030008930300089303000817
:100170009303000893030008930300089303000807
:1001800093030008930300089303000893030008F7
:1001900093030008000000005D09000893030008B5
:1001A00093030008930300089303000893030008D7
:1001B00093030008930300089303000893030008C7
:1001C00093030008930300089303000893030008B7
:1001D000930300089303000800F002F800F05CF8B5
:1001E0000AA090E8000C82448344AAF10107DA4592
:1001F00001D100F051F8AFF2090EBAE80F0013F088
:10020000010F18BFFB1A43F0010318473C690000B7
:100210005C6900000A444FF0000C10F8013B13F039
:10022000070408BF10F8014B1D1108BF10F8015B4F
:10023000641E05D010F8016B641E01F8016BF9D142
:1002400013F0080F1EBF10F8014BAD1C0C1B09D199
:100250006D1E58BF01F801CBFAD505E014F8016B0B
:1002600001F8016B6D1EF9D59142D6D3704700009D
:100270000023002400250026103A28BF78C1FBD8AF
:10028000520728BF30C148BF0B6070471FB506F04A
:10029000B5FB1FBD10B510BD00F0D5F91146FFF735
:1002A000F5FF04F083FF00F0F3F903B4FFF7F2FF6A
:1002B00003BC00F0F7F900002C4B19680868B0E89F
:1002C000F04F80F30988BFF36F8F4FF0000080F389
:1002D000118870470000000008480068006880F33B
:1002E00008884FF0000080F3148862B661B6BFF34F
:1002F0004F8FBFF36F8F00DF00BF00BF08ED00E03E
:10030000DFF80C00016841F470010160704700BF24
:1003100088ED00E0EFF30980BFF36F8F134B1A688D
:100320001EF0100F08BF20ED108A20E9F04F10607A
:1003300009B44FF0500080F31188BFF34F8FBFF323
:100340006F8F05F02DFE4FF0000080F3118809BC7F
:1003500019680868B0E8F04F1EF0100F08BFB0EC45
:10036000108A80F30988BFF36F8F70472C0100203B
:10037000EFF30580704700000948804709480047AF
:10038000FEE7FEE7FEE7FEE7FEE7FEE7FEE7FEE745
:10039000FEE7FEE704480549054A064B70470000A2
:1003A0003D450008D9010008C09A0020C0A00020E7
:1003B000C09C0020C09C002053EA020C00F0698021
:1003C0002DE9F04B4FF00006002B1FBFB3FA83F569
:1003D00003FA05F424FA05F65E4012BF1643B2FA9A
:1003E00082F502FA05F4C5F120051EBF22FA05FCCC
:1003F00044EA0C04203556EA044C4FEA144418BF72
:10040000641C4FF000084FF00009904271EB030CA0
:1004100039D3002919BFB1FA81F701FA07F6B0FA0A
:1004200080F700FA07F6C7F120071EBF20FA07FC85
:1004300046EA0C062037B6FBF4FCA7EB0507103F95
:1004400007F01F0BCBF120060CFA0BFB2CFA06F67B
:1004500044BFB3460026202FA4BF5E464FF0000BDA
:100460005BEA060C08BF4FF0010B19EB0B09ABFB65
:10047000027C48EB0608C01B06FB02CC0BFB03CC3E
:1004800071EB0C01C1E70B46024641464846BDE808
:10049000F08B13B54FF000004FF00001AFF3008078
:1004A000BDE81C407047032A40F2308010F0030C76
:1004B00000F0158011F8013BBCF1020F624498BFB7
:1004C00011F801CB00F8013B38BF11F8013BA2F154
:1004D000040298BF00F801CB38BF00F8013B11F0CF
:1004E000030300F02580083AC0F0088051F8043B6F
:1004F000083A51F804CBA0E80810F5E7121D5CBFDC
:1005000051F8043B40F8043BAFF30080D20724BF0E
:1005100011F8013B11F801CB48BF11F8012B24BFA2
:1005200000F8013B00F801CB48BF00F8012B7047F1
:1005300010B5203AC0F00B80B1E81850203AA0E87E
:100540001850B1E81850A0E81850BFF4F5AF5FEAB2
:10055000027C24BFB1E81850A0E8185044BF18C965
:1005600018C0BDE810405FEA827C24BF51F8043B0C
:1005700040F8043B08BF7047D20728BF31F8023B60
:1005800048BF11F8012B28BF20F8023B48BF00F8F4
:10059000012B704702F0FF0343EA032242EA0242C2
:1005A00000F02CB84FF0000200B513469446964672
:1005B000203922BFA0E80C50A0E80C50B1F1200176
:1005C000BFF4F7AF090728BFA0E80C5048BF0CC024
:1005D0005DF804EB890028BF40F8042B08BF704782
:1005E00048BF20F8022B11F0804F18BF00F8012BF4
:1005F00070477047704770474FF000020429C0F001
:10060000128010F0030C3FF4CFAFCCF1040CBCF11E
:10061000020F18BF00F8012BA8BF20F8022BA1EB96
:100620000C01FFF7C1BF5FEAC17C24BF00F8012BBA
:1006300000F8012B48BF00F8012B704700487047B5
:10064000609A002070477546FFF7F8FFAE46050038
:100650006946534620F00700854618B020B5FFF7DD
:1006600099FEBDE820404FF000064FF000074FF024
:1006700000084FF0000B21F00701AC46ACE8C009C0
:10068000ACE8C009ACE8C009ACE8C0098D467047C9
:1006900010B50446AFF300802046BDE81040FFF7D8
:1006A00004BE000001491820ABBEFEE72600020090
:1006B000DFED080A20EE200AF2EE040A80EE201A8E
:1006C000BCEEC10A10EE100AFF2800D3FF20C0B212
:1006D0007047000000007F4310B5094C0022202124
:1006E000204601F0E3FC012004F081FD01222021DD
:1006F000204601F0DBFCBDE81040012004F077BD8E
:10070000000400482DE9F041012801D058B11AE059
:1007100091ED000AFFF7CCFF60F3070491ED010AA9
:10072000FFF7C6FF0DE091ED000AFFF7C1FFC0F132
:100730000A0060F3070491ED010AFFF7B9FFC0F169
:100740000A0060F30F24174D0026E0B22E80164FEA
:10075000688032461021384601F0A8FC642302224A
:100760002946124802F0E8FB01221021384601F028
:100770009DFCC4F307202E8040F480706880002226
:100780001021384601F092FC6423022229460748D2
:1007900002F0D2FB3846BDE8F0410122102101F001
:1007A00085BC00001801002000040048440300201C
:1007B000FEE7000010B5024690ED000A03F06CFD64
:1007C000074B83ED000A92ED010A03F065FD83ED0E
:1007D000010ABDE8104002490020FFF793BF000066
:1007E0001C01002008B501788DF8001001798DF802
:1007F0000110017A8DF80210017B8DF80310416A17
:10080000006A41F001030522694600F02FF908BD96
:10081000032921D004291ED1117801F001010176AC
:100820001178C1F3400141761178C1F380018176DE
:100830001178C1F3C001C1761178C1F300110177BD
:100840001178C1F3401141771178C1F3801181779C
:100850001178C909C17770471178D2F8013041EA9F
:10086000032100EE101AB8EEC00A80ED010A1178DB
:10087000D37941EA0361937952781B0443EA022257
:10088000114300EE101AB8EEC00A80ED050A704759
:10089000014800F07BBD000034050020014800F055
:1008A00075BD0000400400200D4902688A4201D253
:1008B0000C4901E00B492031D2B21423083AB2FBB3
:1008C000F3F2436C02F01F0223F003031944816426
:1008D00004498031C16401219140016570470000E5
:1008E00008040240000802400179074A02EB810235
:1008F0004265054A4432491E826501F01F0201210A
:100900009140C16570470000FC08024030B5D0E955
:1009100013456560446D14B1D0E91645656090F8E3
:10092000444004F01F050124AC40056C6C60046871
:1009300063608368102B036803D099600068C2600D
:1009400030BD9A600068C16030BD704772B6FEE786
:10095000014800F08ABF000018020020014800F0A2
:1009600084BF00007C020020F0B5D1E901650C696C
:100970002C430D68C6B145F080452C43D1E906658E
:10098000354391F820704E69406D46EA076635435D
:100990008E8903EBC30300EBC30045EA0645E0E89C
:1009A00002450023084C0AE044EA8544E6E7D618ED
:1009B000D55CD6F801601B1D45EA062520C0CD6830
:1009C000655D9D42F3D8F0BDBC6A0008704730B544
:1009D0000024039D0160B1F5006F03D34FF0804107
:1009E000416000E04460C0E90242C0E90443C0E95C
:1009F0000654046230BD30B587B00546002402209D
:100A0000CDE90240012004904FF4A06005900194CC
:100A10004FF4F060069001A9284600F050FE08B19E
:100A2000FFF7D4FF0222002311462846009400F06D
:100A300074FE08B1FFF7CAFF284601F0F6F908B1C5
:100A4000FFF7C4FF00220121284600F0A3FD08B1F2
:100A5000FFF7BCFF00224FF40021284600F09AFD6A
:100A6000002801D0FFF7B2FF07B030BD70B50546D2
:100A70008AB01E464FF400100C46431000903146D9
:100A800001A8FFF7A4FF242201A90548FFF750FDA4
:100A9000224601A9284600F0EDFD0AB070BD000015
:100AA000440D00202DE9F04F044690F858009BB00B
:100AB0000F464FF0000B012812D0012084F8580097
:100AC00000261796189620684FF0A048DFF81C9172
:100AD000DFF81CA1474D404506D12846009508E0A7
:100AE00002201BB0BDE8F08F48450AD15046CDF832
:100AF00000A003F048F90090206803F044F940B1E9
:100B000009E0E06D40F02000E06584F858600120C5
:100B1000E7E7009850B1E06D40F02000E0654FF04D
:100B2000010B00BF84F858605846DAE72068414658
:100B3000884201D0A84201D12F4800E02F48D7F8C1
:100B400000C02F4B40F61F72BCF1000F2DD0D0F823
:100B500008C094F838802CF4604C4CEA483CD7F834
:100B600004804CEA080CC0F808C0D4F800C08C45DA
:100B700001D0AC4504D18968AB6801F0010109E0FE
:100B8000D9F80810DAF8085001F0010105F0010564
:100B90009B68294303F001031943C3D1BB6839683B
:100BA00019438368934319431DE0876827F460471E
:100BB000876027688F4201D0AF4204D18968AB6853
:100BC00001F0010109E0D9F80810DAF8085001F045
:100BD000010105F001059B68294303F00103194356
:100BE000A0D18168914381609CE70000000400501F
:100BF00000050050000100500003005000070050A5
:100C0000000600502DE9F84F00270446009790F8A1
:100C10005800DFF81C840D46B946012811D0012682
:100C200084F85860206803F0AAF860B1E06D40F0E5
:100C30002000E0655FF0010784F858903846BDE871
:100C4000F88F0220FBE7D5E900210C23206803EA96
:100C500091131844036B01F01F014FF01F0C0CFAA5
:100C600001FCC2F3846223EA0C038A40134303634A
:100C7000206803F084F88246206803F07CF85AEA82
:100C800000003CD1AA6829682068B2F1004F37D033
:100C900003F07DF82068416921F00041416120683E
:100CA0006969C268C2F3C102520091402A69042AEC
:100CB00031D000EB82002B68026EDFF878C303F0BE
:100CC000F84302EA0C020B431A4342F0004101666A
:100CD00022682869A96902EB8000026E22F0807206
:100CE0000A430266297F22682869012910D0002161
:100CF00002EB8000026E22F000720A4302667DE081
:100D0000002203F044F82068416941F00041C5E742
:100D10004FF00071ECE7002103F027F84003206852
:100D20004FF0000172D003F020F890FAA0F0B0FA72
:100D300080F1286842036ED090FAA0F0B0FA80F0FB
:100D4000814204D100221146206803F02FF80121CE
:100D5000206803F00AF8400320684FF001015DD0DD
:100D600003F003F890FAA0F0B0FA80F1286842038B
:100D700059D090FAA0F0B0FA80F0814204D100225C
:100D80000121206803F012F80221206802F0EDFF33
:100D9000400320684FF0020148D002F0E6FF90FACD
:100DA000A0F0B0FA80F12868420344D090FAA0F095
:100DB000B0FA80F0814204D100220221206802F0C2
:100DC000F5FF0321206802F0D0FF400320684FF0B8
:100DD000030133D002F0C9FF90FAA0F0B0FA80F11D
:100DE000286842032FD090FAA0F0B0FA80F0814238
:100DF00004D100220321206802F0D8FF2068816816
:100E000011F0010F22D0ACE000E004E002F0ADFFF1
:100E1000C0F384618DE7C0F3846091E702F0A5FF21
:100E2000C0F38461A2E7C0F38460A6E702F09DFFEF
:100E3000C0F38461B7E7C0F38460BBE702F095FFBD
:100E4000C0F38461CCE7C0F38460D0E72A7B2968D3
:100E500050F8B03FC1F3120C23EA0C0302F0180C57
:100E6000754A22FA0CF20A4013430360E9684145CF
:100E700077D1286841031CD090FAA0F1B1FA81F132
:100E8000491C01F01F0109294FEA403132D80029DD
:100E900012D000BF90FAA0F1B1FA81F101F1010185
:100EA00001F01F0106FA01F609D100BFC0F3846109
:100EB00009E0C0F38461E3E7C0F38461EEE790FAF0
:100EC000A0F1B1FA81F101F1010101F01F0146EA3F
:100ED000816102D1C0F3846003E090FAA0F0B0FA1F
:100EE00080F000F1010000F01F0000EB400041EA3B
:100EF000005132E000290ED090FAA0F1B1FA81F150
:100F000001F1010101F01F0106FA01F606D100BF4F
:100F1000C0F3846106E0C0F38461F1E790FAA0F1C8
:100F2000B1FA81F101F1010101F01F0146EA81618D
:100F300002D1C0F3846003E090FAA0F0B0FA80F030
:100F400000F1010000F01F003C4A00EB400002EB02
:100F5000005041EA000141F00071AA68206802F0E7
:100F600016FF37482B6803423FF466AE21684FF006
:100F7000A04C3448344E354D614501D0A94201D1D1
:100F8000024600E032469268DFF8C48002F0E07268
:100F9000434503D0DFF8BC80434521D15FEA0228F6
:100FA0001ED4614506D02C4B99427FF445AEA94230
:100FB00000D0304642F40001826822F0E0720A4319
:100FC0008260264826490068B0FBF1F0401C00EB27
:100FD0004000800000E0401E00900028FBD12BE67E
:100FE000DFF8808043450FD15FEAC2180CD4A942D4
:100FF00002D11D4B9942F2D0614502D0A94200D0E6
:10100000304642F080710CE0DFF860804345E6D165
:101010005302E4D4A942E2D0614500D0304642F404
:101020008001826822F0E0720A43826004E60000D8
:1010300000007F4000F0FF03FFFF0700000020FEDC
:10104000000008800003005000070050000100501D
:10105000000021C31000C0900006005024000020B2
:10106000400D0300000052C700050050000084CB73
:10107000F8B54FF0000504002E46009502D0E06D53
:1010800010B107E00120F8BD204600F009F92666FE
:1010900084F8586020688168C1F3407119B1816893
:1010A000734A1140816020688168C1F3007189B979
:1010B0008168704A114041F0805181606E486F49EB
:1010C0000068B0FBF1F04000801C00E0401E009082
:1010D0000028FBD120688168C1F3007141B9E16D3E
:1010E00041F01001E165216E41F001012166012509
:1010F00002F045FEE16DC90600D430B1E06D40F06C
:101100001000E06501252846F8BDE06D20F48070F0
:1011100040F00200E0652068816811F0010F27D1DE
:101120004FF0A043564A984201D0904204D19968AA
:10113000966801F001010AE052498968524E01F0B7
:101140000101B66806F001063143504EB66806F05C
:10115000010631430CD1984201D0904201D14C4854
:1011600000E04C486168826822F47C120A43826085
:10117000E168E06B627F0843A16841EA42310843BD
:1011800094F8241040EA0140012904D1218D424AFB
:1011900002EB41410843E16A29B101F47871226B05
:1011A000014342EA01002268D1683C4B19400143E7
:1011B000D16020680169626B21F0406111430161D7
:1011C000206802F0D8FD70BB207F94F838102268A8
:1011D000800340EA4100D16844F20203994301438D
:1011E000D16020690028206801690AD041F480316B
:1011F0000161206850F8C01F22696FF30D0111438F
:1012000007E021F480310161206850F8C01F6FF3BE
:101210000D01016094F8400001280CD0206801699C
:1012200021F001010161606901282068016B21F052
:101230000F0111D013E0D4E911010843D4E91312CE
:101240001143084321680A6940F2FC739A43104332
:1012500040F001000861E6E7226A521E1143016373
:10126000E06D20F0020040F00100E0654BE7000077
:10127000C0FFFF5FC0FFFF7F24000020400D030080
:10128000000100500004005000050050000600500E
:1012900000030050000700500000FEFF0740F0FF71
:1012A00010B59CB00446142115A8FFF77BF9542112
:1012B0006846FFF777F92068B0F1A04F26D14FF4C8
:1012C0000040009080031190684601F0A3F808B137
:1012D000FFF73CFB0E48C16C41F40051C164C16C86
:1012E00001F400511A91C16C41F00101C164C06C5C
:1012F00015A900F001001A90072015900320169000
:10130000002017904FF0904000F0ACFD1CB010BDD5
:101310000010024070B590F82520002401212346DA
:10132000022A07D00422C26380F8251080F82430F6
:10133000012429E00268156825F00E051560026891
:10134000156825F001051560826C156825F4807517
:10135000156090F84420056C02F01F0201FA02F2B9
:101360006A60D0E913255560426D32B1156825F4E5
:1013700080751560D0E91625556080F8251080F835
:101380002430816B01B18847204670BDF0B4016CF8
:101390000C6801680D6890F8442002F01F060422D2
:1013A00002FA06F3234211D06B070FD50B689B0698
:1013B00003D40B6823F004030B6090F8441001F091
:1013C0001F018A40016C4A60016B1DE0022303FA91
:1013D00006F727424FF0000C4FF0010218D0AF077C
:1013E00016D50C68A40605D40C6824F00A040C6019
:1013F00080F8252090F8441001F01F018B40016C0B
:101400004B6080F824C0C16A00291AD0F0BC08479C
:101410000823B340234214D02B0712D50B6823F0C6
:101420000E030B6090F84410036C01F01F0102FAE8
:1014300001F15960C26380F8252080F824C0416B17
:10144000E2E7F0BC7047000070B504000CD02B4AF6
:1014500021681420914209D2294A0A44B2FBF0F0D3
:101460008000606427480AE0012070BD234A524290
:101470000A44B2FBF0F08000606420480838206421
:10148000022084F825000A6847F6F0708243D4E908
:1014900002031843D4E904352B431843A3691843C6
:1014A000E3691843236A1843104308602046FFF796
:1014B000FBF9A0680025B0F5804F00D16560A16CF4
:1014C00020790860D4E9130141606068401E032858
:1014D00008D82046FFF708FA606D0560D4E91601C8
:1014E000416002E06565A565E565E563012084F876
:1014F000250084F82450002070BD0000080402403C
:10150000F8FFFDBF0000024070B5044690F82400CB
:10151000002501280CD0012084F8240094F82560CF
:101520000020012E06D084F824000225284670BD34
:10153000022070BD022684F82560E06320680668FA
:1015400026F0010606602046FFF7E0F9206B002830
:101550002068016802D041F00E0106E021F004018C
:1015600001602068016841F00A010160A06C016817
:10157000C90303D5016841F480710160606D18B141
:10158000016841F4807101602068016841F0010147
:101590000160CBE730B590F85C30012B07D0022B0F
:1015A00005D0016E41F002010166012030BD0468E2
:1015B000A36D4D0701D0DD071DD011F0380F01D00C
:1015C0009D0718D511F4E07F01D05D0713D511F404
:1015D000F05F01D01D070ED511F4604F01D0DD067C
:1015E00009D511F4403F01D09D0604D511F47C0FBC
:1015F00005D05D0603D4E56D45F00105E5654C07B2
:1016000001D0DC071DD111F0380F01D09C0718D490
:1016100011F4E07F01D05C0713D411F4F05F01D026
:101620001C070ED411F4604F01D0DC0609D411F46C
:10163000403F01D09C0604D411F47C0F06D05B0619
:1016400004D50368DC6D44F00204DC650B0604D5A8
:10165000036853F8DC4F14431C60CB0504D50368C2
:1016600053F8E04F14431C600068426D0A43426522
:10167000002030BD70B5044690F85C00022803D00D
:10168000206E40F0080007E02068D0F8C4309B02CC
:1016900005D5206E40F400702066012070BDD0F8A2
:1016A000C400C0F301452B462046FFF75DF92168D1
:1016B0000120A840C1F8CC00A065002070BD10B585
:1016C00090F85C20012A07D0022A05D0016E41F073
:1016D00002010166012010BD0A687AB10B7B0A691C
:1016E0000C7A42EA43734A69406C496842EA847260
:1016F00000EBC100C0E90032002010BD0B7A4A693E
:101700000C8A42EA83720B7B006CDB06496843EA71
:1017100004431A4340F82120EEE730B590F85C50BE
:10172000039C012D05D0016E41F0040101660120EA
:1017300030BD0901006841EA820141EA430150F8E5
:10174000802F214322F03F0211430160002030BD71
:1017500070477047F0B590F85C400025022C03D02C
:10176000016E41F0080160E00468402946D0D4F8D9
:101770009860360756D0D4F89860F60104D5D4F8AE
:101780008060F60500D50125D4F89840C4F3012403
:101790006619C46C06EBC60504EBC504256815F094
:1017A00080455560256843D025F060451560256863
:1017B0002C4F05F00055956020CC05F000451561D3
:1017C00034F8045BADB2D56154F8045CC5F303454D
:1017D000D56054F8045C05F48015556154F8045C38
:1017E00005F40015956154F8045CC5F306651562AF
:1017F00054F8045CED0F5562002522E0D4F89060A7
:1018000036070FD0D4F89060F60104D5D4F8806084
:10181000B60500D50125D4F89040C4F3012466191B
:10182000846CB7E7016E41F4807101660120F0BD60
:10183000C5F38A45BAE700BF14F805C003F805C030
:101840006D1CD2F80CC017F80CC0AC45F4D8006879
:10185000402903D0C0F89C600020F0BDC0F894601F
:10186000FAE70000BC6A000870472DE9F05F044603
:101870000068016D426D01F4E05102EA0108016D5A
:10188000426D01F0070102EA0109016D426D01F0AC
:10189000380102EA010A016D476D01F471010F4040
:1018A000016D426D01F46021456D02EA010B016D8D
:1018B000CE43710607D4E943490604D440210165AB
:1018C0002046FFF7D1FFF0050ED4E843C0050BD446
:1018D0002068D0F8D820D0F8E01011404FF4807282
:1018E0000265204600F0B9FAB8F1000005D0216881
:1018F00008654146204600F0B2FAB9F1000005D073
:10190000216808654946204600F028FABAF100002F
:1019100005D0216808655146204600F085FAB005DB
:1019200009D4E843800506D421684FF400700865A7
:10193000204600F095FA30060DD4E84300060AD49C
:101940002068D0F8D420D0F8DC1011408022026545
:10195000204600F083FAB00409D4E843800406D49A
:1019600021684FF400500865204600F075FA3004F5
:1019700009D4E843000406D421684FF40040086508
:10198000204600F068FA70040AD4E843400407D403
:1019900021684FF480400865206E40F0800020668A
:1019A000BBF1000005D02168086559462046FFF7C5
:1019B000D0FE27B120680765206E38432066206E70
:1019C000002802D02046FFF7C3FEBDE8F09F0000CC
:1019D0002DE9F041040006D0DFF8F48194F85C00B2
:1019E000002518B107E00120BDE8F08184F85D50C2
:1019F000204600F0F9F82068816921F0100181612A
:101A000000F05AFB0646032705E000BF00F054FB38
:101A1000801B0A2811D8206880690007F6D4206846
:101A2000816941F00101816100F046FB06460BE04F
:101A300000F042FB801B0A2806D9206E40F001000E
:101A4000206684F85C70CEE720688069C007EFD01C
:101A50002068816941F0020181612168414502D11C
:101A60005C4960680860207C01282068816937D063
:101A700041F040018161607C01282068816932D099
:101A800021F480418161A07C0128206881692DD0EA
:101A900041F48051816120688169A26821F440711C
:101AA000114381612068816921F0A401816120686E
:101AB000016921F010010161E068012819D010B31B
:101AC00002281BD02068816941F080018161206873
:101AD000016941F010010161E06803280ED012E0B5
:101AE00021F04001C6E741F48041CBE721F4805169
:101AF000D0E72068816941F0040103E02068816932
:101B000041F020018161207EE26940066FF0FF0113
:101B100001EB0222A0F100701043226AA38A521E38
:101B200010430A0202EB034318432368D861A068FC
:101B3000B0F5407F10D1D4E90A0301EB0321401E28
:101B40000843216B131303EB01110843A18C02EB33
:101B5000014108432168C860206850F8C01FE26B4B
:101B6000114301601D4A21681B48914200D11C4865
:101B70001C4A914201D100F5D460206451F8802FB5
:101B8000A38E22F4F81242EA03420A6000F17001C7
:101B90006164216851F8802F94F8383022F0706227
:101BA00042EA03620A6000F1B001A164D831E16445
:101BB000D831216518316165D83100E020C08842F4
:101BC000FCD3A5652566012084F85C0000200BE7A6
:101BD000006400400065004000A400400068004030
:101BE00050A70040006C00402DE9F0439BB0044634
:101BF000142115A8FEF7D6FC54216846FEF7D2FC46
:101C0000504B2068991400254A034F4E0227DFF8F5
:101C10003C914F4C4FF0090898422ED168460E92E5
:101C2000009100F0F7FB08B1FEF790FE3068401C11
:101C30003060012807D1A06D40F00070A065A06D54
:101C400000F000701A90E06C40F00200E064E06C7C
:101C5000CDE9167500F002001A904FF44070CDE9FE
:101C60001858159015A9484600F0FCF800220521E7
:101C7000152000F0B3FA152030E0364B984232D1EF
:101C800068460E92009100F0C5FB08B1FEF75EFEBB
:101C90003068401C3060012807D1A06D40F0007012
:101CA000A065A06D00F000701A90E06C40F002009A
:101CB000E064E06CCDE9167500F002001A904FF474
:101CC0004050CDE91858159015A9484600F0CAF8BB
:101CD00000220521562000F081FA562000F070FA0B
:101CE0001BB0BDE8F0831C4B9842F9D168460E92B8
:101CF000009100F08FFB08B1FEF728FE3068401C11
:101D00003060012807D1A06D40F00070A065A06D83
:101D100000F000701A90E06C40F00100E064E06CAC
:101D2000CDE9167500F001001A904FF401401590AE
:101D30000B20CDE9185015A94FF0904000F092F813
:101D4000CEE70000006400401400002000040048BA
:101D50000010024000680040006C004070B504466E
:101D6000C8074ED027492068274D40F2FA768842AE
:101D700029D1A5F140032A4640212046FFF7EAFC7D
:101D80002A68002002F003013240B2F5A46F06D0A9
:101D9000B2F5A66F05D0B2F5A86F05D103E01B48D8
:101DA00002E01B4800E01B48174A403AFEF730FDAE
:101DB000002201212046FFF7EDFB002821D0BDE8DD
:101DC0007040FEF703BE144988421AD10E4B0E4AEA
:101DD000403B40212046FFF7BDFC2A68002002F06E
:101DE00003013240B2F5AA6F07D0B2F5AC6F06D04E
:101DF000B2F5AE6FD8D10948D6E70948D4E709480B
:101E0000D2E770BD00640040FC08002028000020DC
:101E1000500000207800002000680040F000002002
:101E2000A0000020C8000020704790F85C10012935
:101E300005D0016E41F004010166012070470221C6
:101E400080F85C1001688A6922F001028A61002131
:101E50000166084670477047704770477047704783
:101E6000704700002DE9F04FDFF820920023012693
:101E70000324A9F1040B85B00F2709F1040AABF183
:101E8000040EFAE006FA03F52A407CD091F804C06B
:101E90000CF0030CBCF1010F02D0BCF1020F26D1F3
:101EA000D0F808C0CDF800C04FEA430C04FA0CF893
:101EB000CDF810C0DDF800C02CEA080CCDF800C049
:101EC000D1F80C80DDF810C008FA0CF8DDF800C07D
:101ED00048EA0C08C0F80880D0F804C02CEA050CC9
:101EE0000D79C5F300159D4045EA0C0545600D7957
:101EF000ED43AD070ED0C5684FEA430804FA08FC6D
:101F000025EA0C05D1F808C00CFA08FC4CEA050CCF
:101F1000C0F80CC00D7905F00305022D16D1DD08BF
:101F200000EB850CCDF808C0DCF820805D074FEA97
:101F3000D56C07FA0CF528EA05080D6905FA0CF5C9
:101F4000DDF808C045EA0805CCF8205005684FEADE
:101F5000430CCDF808C004FA0CFC25EA0C0591F8F6
:101F600004C00CF00308DDF808C008FA0CF848EAD1
:101F70000508C0F800804D6815F4403F7CD0444D02
:101F8000D5F860C000E077E04CF0010CC5F860C007
:101F90002D6E23F0030C05F0010500953D4D6544C1
:101FA0000295AD684FEA837C4FEA1C7807FA08FC7B
:101FB00025EA0C05B0F1904F06D0DFF8DCC0604593
:101FC00005D14FF0010C20E04FF0000C1DE0DFF8D0
:101FD000CCC0604502D14FF0020C16E0DFF8C0C063
:101FE000604502D14FF0030C0FE0DFF8B8C0604548
:101FF00002D14FF0040C08E0DFF8ACC0604502D11C
:102000004FF0050C01E04FF0060C0CFA08FC4CEA0E
:10201000050C029DC5F808C0D9F80050CC46D1F88F
:10202000048095435FEAC82800D51543CCF80050DA
:10203000DAF80050D446D1F8048095435FEA882846
:1020400000D51543CCF80050DBF80050DC46D1F841
:10205000048095435FEA883800D51543CCF80050DA
:10206000DEF80050F446D1F8048095435FEAC838A2
:1020700000D51543CCF800505B1C0A6832FA03F512
:102080007FF400AF05B0BDE8F08F00000804014008
:102090000010024000000140000400480008004811
:1020A000000C004800100048001400480AB181618B
:1020B00070478162704700000148806870470000E7
:1020C000180000200248816842681144816070470E
:1020D0001800002010B50024032000F09FF80F2006
:1020E00000F008F808B1012401E000F047F82046AC
:1020F00010BD000030B505461B4887B0016E41F4A5
:1021000080210166006E06A900F48020009001A8DD
:1021100000F0EEFB00F01EFC1449154AB0FBF1F193
:102120001448491E0260416040F2E7320021C0E9D4
:102130000321816001F03DF8040012D10D4801F047
:10214000FFF804000DD11A2000F03AF8102D07D244
:10215000002229461A2000F041F80748056000E0F7
:10216000012407B0204630BD0010024040420F005D
:102170000048014070080020180000200F4808B5F2
:10218000016E41F001010166016E01F00101009153
:10219000816D41F080518165806D002200F080509A
:1021A00000900F21901E00F019F800F08DFF022022
:1021B00000F092FFBDE8084000F024B90010024092
:1021C000002809DB00F01F02012191404009800036
:1021D00000F1E020C0F8001170470000F0B40E4B91
:1021E0001B680C46C3F30223C3F10705042D00D975
:1021F0000425191D072901D2002300E0DB1E01265A
:1022000006FA05F1491E214099409E40761E16406F
:102210003143F0BC02F0BABF0CED00E0064900F01B
:10222000070208684FF6FF03184040EA0220034AFD
:1022300010430860704700000CED00E00000FA0554
:1022400001220168C0F8D022002280F8C82231F8AB
:10225000540F40F001000880088840F00200088018
:102260001046704770B5040004D094F89102002520
:1022700010B106E0012070BD84F89052204600F0B5
:102280003FF8032084F89102206802F076FF0020D6
:1022900001260BE000EB800104EBC1014E740874D1
:1022A000CD740D624D62401CC0B28D6221798142B5
:1022B000F0D8002012E000BF00EB800104EBC10168
:1022C00081F8515181F8500181F85351C1F86051A2
:1022D000C1F86451401CC0B2C1F8685121798142F3
:1022E000EAD894E8070002F03FFF257384F8916272
:1022F000A07A012802D12046FFF7A2FF002070BD7E
:1023000010B596B0044654216846FEF74BF90C49C7
:102310002068884212D14014009000200F90684637
:1023200000F078F808B1FEF711FB0648816D41F422
:1023300000018165806D00F40000159016B010BD9D
:10234000005C0040001002402B492C4B0A683221EF
:102350004A432B4940B1B0F5007F086829D020F4EA
:10236000C06040F480602CE00868C0F3412002287F
:1023700004D051F8800F20F4807022E0D1F8800062
:1023800020F48070C1F88000086820F4C06040F438
:1023900000700860B2FBF3F0401C00E0401E4A6988
:1023A000520501D50028F9D1486940050AD5032016
:1023B0007047C0F34120022806D051F8800F40F446
:1023C0008070086000207047D1F8800040F4807071
:1023D000C1F88000086820F4C06040F40070086014
:1023E000B2FBF3F0401C00E0401E4A695205DBD509
:1023F0000028F9D1D8E700002400002040420F0057
:10240000007000400248816841F48041816070475B
:10241000007000402DE9F843044600680026BB4DDB
:1024200000035ED5A86D0027C00008D4A86D40F059
:102430008050A865A86D012700F080500090DFF85B
:10244000D092D9F8001041F48071C9F80010FFF75C
:1024500033FE804606E000BFFFF72EFEA0EB08002B
:1024600002282BD8D9F80000C005F5D5D5F8900082
:1024700010F4407014D0216D814211D0D5F8900035
:10248000D5F8901020F4407041F48031C5F89010D8
:10249000D5F8901021F48031C5F89010C5F890005F
:1024A000C00711D0FFF708FE804641F2883907E0E7
:1024B000FFF702FEA0EB0801494501D903260BE016
:1024C000D5F890008007F3D5D5F89000216D20F461
:1024D00040700843C5F890001FB1A86D20F08050EF
:1024E000A8652078C00707D0D5F88800616820F07B
:1024F00003000843C5F888002078800707D5D5F881
:102500008800A16820F00C000843C5F888002078F6
:10251000400707D5D5F88800E16820F0300008436F
:10252000C5F888002078000707D5D5F8880021690C
:1025300020F0C0000843C5F888002078C00607D501
:10254000D5F88800616920F440700843C5F8880018
:102550002078800607D5D5F88800A16920F440606E
:102560000843C5F888002078400607D5D5F88800CC
:10257000E16920F440500843C5F88800207800063F
:1025800007D5D5F88800216A20F440400843C5F8F3
:1025900088002088C00507D5D5F88800616A20F436
:1025A00040300843C5F888002068800307D5D5F877
:1025B0009C00A16A20F003000843C5F89C00208815
:1025C000800507D5D5F88800E16A20F4402008434B
:1025D000C5F88800208840050FD5D5F88800216B04
:1025E00020F440100843C5F88800206BB0F5801F28
:1025F00003D1E86840F48010E860208800050FD51A
:10260000D5F88800616B20F440000843C5F88800C5
:10261000606BB0F5800F03D1E86840F48010E8608B
:102620002088C0040FD5D5F88800A16B20F0407039
:102630000843C5F88800A06BB0F1807F03D1E8683B
:1026400040F48010E86020884FF0006180040ED5CF
:10265000D5F88800E26B20F040601043C5F8880090
:10266000E06B884203D1E86840F48010E86020887D
:1026700040040ED5D5F88800226C20F0406010434D
:10268000C5F88800206C884203D1E86840F48010C7
:10269000E860208800040FD5D5F88800616C20F030
:1026A00040500843C5F88800606CB0F1805F03D1EA
:1026B000E86840F48030E8602068C0030FD5D5F8A2
:1026C0008800A16C20F040400843C5F88800A06C49
:1026D000B0F1804F03D1E86840F48030E8602068B2
:1026E00040030FD5D5F89C00E16C20F4401008435E
:1026F000C5F89C00E06CB0F5001F03D1E86840F419
:102700008010E8603046BDE8F88300000010024009
:10271000007000402DE9F0470E4605004FF000071D
:1027200025D0DFF8AC81D8F8000000F00F00B042EF
:102730000CD2D8F8001021F00F013143C8F8001076
:10274000D8F8000000F00F00B04210D12968614CA9
:10275000C80741F2883A5AD06868DFF87C910328AC
:1027600008D0022820682DD0400500282CDB01204D
:10277000BDE8F08720688001F9D5E06800F0030229
:10278000E068C0F30310401C032A19D0534A00BF6D
:10279000B2FBF0F0E268C2F306225043E268C2F3F3
:1027A0004162521C5200B0FBF2F0484517D9A068B4
:1027B00010F0F00F0CD0880711D5A86840B10EE0DA
:1027C000474AE5E78003D0E700F0D6F8484506D948
:1027D000A06820F0F00040F08000A0608027A06892
:1027E000696820F003000843A060FFF765FC81469C
:1027F00006E000BFFFF760FCA0EB090151453AD8A5
:10280000A068696800F00C00B0EB810FF2D1286875
:10281000810714D5400703D5A06840F4E060A060AC
:102820002878000705D5A06820F4605040F4E060E7
:10283000A060A068A96820F0F000084304E0802FA1
:1028400003D1A06820F0F000A060D8F80010404646
:1028500001F00F01B14216D9016821F00F01314397
:102860000160FFF729FC074607E000BFFFF724FCE3
:10287000C11B514501D903207AE7D8F8000000F0C8
:102880000F00B042F2D12878400705D5A068E9686A
:1028900020F4E0600843A0602878000706D5A0680F
:1028A000296920F4605040EAC100A06000F064F89B
:1028B000A1680C4AC1F30311515C01F01F01C8402B
:1028C0000949086009480068BDE8F047FFF712BCF5
:1028D000002002400010024000B4C4040024F400B0
:1028E000001BB700F46A0008240000201800002034
:1028F0000F2202600C4A936803F00303436093685D
:1029000003F0F0038360936803F4E063C3609268AC
:102910004FF4E06303EAD20202610448006800F069
:102920000F000860704700000010024000200240C5
:102930000548064900688968054AC1F30221515CCF
:1029400001F01F01C8407047240000200010024021
:10295000046B00080548064900688968054AC1F308
:10296000C221515C01F01F01C840704724000020C3
:1029700000100240046B0008184910B58868C0F3C5
:1029800081021748012A0BD08A68164BC2F38102D4
:10299000022A06D08A68C2F38102032A03D00020EB
:1029A00010BD184610BDCA6802F00304CA68C2F31D
:1029B0000312521C032C02D0B0FBF2F001E0B3FB77
:1029C000F2F0CA68C968C2F306225043C1F34161FC
:1029D000491C4900B0FBF1F010BD0000001002409E
:1029E0000024F400001BB7002DE9F84304007AD05E
:1029F0002078F84DC00747D0A868E96800F00C00BF
:102A000001F003010C2802D0082817D001E00329A7
:102A100014D06068B0F5803F17D0B0F5A02F2868BB
:102A200017D020F480302860286820F480202860A7
:102A30006068E0B1FFF740FB064614E028688003B9
:102A400022D560680028D2D01EE0286840F480308B
:102A5000EDE740F480202860F7E700BFFFF72CFB8C
:102A6000801B642870D828688003F7D50CE0FFF736
:102A700023FB064605E000BFFFF71EFB801B642812
:102A8000F0D828688003F7D4207880074CD5A86850
:102A9000E96800F00C0001F003010C2802D00428C2
:102AA0000DD001E002290AD0E068002828682BD068
:102AB00040F480702860FFF7FFFA064619E02868A6
:102AC000400502D5E068002891D06868217C20F09C
:102AD000FE4040EA01606860BF480068FFF70AFBFB
:102AE000002800D120E072E1FFF7E6FA801B0228FF
:102AF000B8D828684005F7D56868217C20F0FE40EA
:102B000040EA016068600FE020F480702860FFF701
:102B1000D3FA064605E000BFFFF7CEFA801B022875
:102B2000A0D828684005F7D42078000729D5606927
:102B30000028D5F8940013D040F00100C5F89400A7
:102B4000FFF7BAFA064606E090E000BFFFF7B4FAD6
:102B5000801B022886D8D5F894008007F6D510E0AF
:102B600020F00100C5F89400FFF7A6FA064604E03D
:102B7000FFF7A2FA801B022878D8D5F894008007C6
:102B8000F6D42078400761D5A86D0026C00008D48F
:102B9000A86D40F08050A865A86D012600F0805017
:102BA00000908E480168C90511D40168804641F43F
:102BB00080710160FFF780FA074604E0FFF77CFAB6
:102BC000C01B022852D8D8F80000C005F6D5A0686E
:102BD000012815D00528D5F8900016D020F0010066
:102BE000C5F89000D5F8900020F00400C5F89000DA
:102BF000A06841F28838B8B1FFF75EFA07460EE0E8
:102C0000D5F8900040F00100F0E740F00400C5F86E
:102C10009000F5E7FFF750FAC11B414526D8D5F8DB
:102C200090008007F6D50CE0FFF746FA074604E06F
:102C3000FFF742FAC11B414518D8D5F8900080072C
:102C4000F6D41EB1A86D20F08050A86520788006CB
:102C500029D5A0690028D5F8980013D040F00100CC
:102C6000C5F89800FFF728FA064606E075E000BFB1
:102C7000FFF722FA801B02286FD8D5F8980080074A
:102C8000F6D510E020F00100C5F89800FFF714FA1F
:102C9000064604E0FFF710FA801B02285DD8D5F83D
:102CA00098008007F6D4E069F0B3A968C1F3810108
:102CB00003295DD00228286820F08070286003D0A6
:102CC000FFF7FAF904464BE0FFF7F6F9064604E091
:102CD000FFF7F2F9801B02283FD828688001F7D45B
:102CE000F4E908016FF00F0202EB01110843218A99
:102CF0005204490802EB4151A26841EA022108430B
:102D0000217D4FF07E42490802EB41610843217B5F
:102D100040EAC160E968324A11400843E860286827
:102D200040F08070286000E05EE0E86840F080706D
:102D3000E860FFF7C1F9044605E000BFFFF7BCF902
:102D4000001B022809D828688001F7D54CE000BF95
:102D5000FFF7B2F9001B022802D90320BDE8F8836F
:102D600028688001F4D4E8681E490840E8603BE028
:102D70000128F3D0E868226A00F00301914226D1CD
:102D8000616A00F0F0020901103991421FD1A26A74
:102D900000F4FE41B1EB022F19D194F82C2000F081
:102DA0007841B1EBC26F12D1218E00F4C002490804
:102DB0004905A1F50011914209D194F8341000F0B1
:102DC000C06049084906A1F1007181420CD0012080
:102DD000C4E700000010024018000020007000400E
:102DE0000C809F01FCFFEEFE0020B7E770B50400E9
:102DF00009D0606A002540B125616561A56294F83B
:102E00005D0040B10CE0012070BD6068B0F5827FCC
:102E1000F4D0E561F2E784F85C50204600F05CF8FD
:102E2000022084F85D002068016821F04001016003
:102E3000E1684FF4E062914201D9002001E04FF4D3
:102E40008050B1F5706F02D0914200D0A562A18888
:102E5000228901F4827102F404421143227C02F0BF
:102E600002021143227D02F001021143228B02F47F
:102E700000721143227F02F03802114394F820209F
:102E800002F080021143228D02F4005211432268A5
:102E90001160A169042202EA114194F8242000F48F
:102EA000805002F01002114394F8342002F008021E
:102EB0001143A28902F4706211430143206841600A
:102EC0002068C16921F40061C1612566012084F890
:102ED0005D00002070BD000010B586B004461421CE
:102EE0006846FDF75FFB1249206888421ED11148F1
:102EF000016E41F480510166016E01F4805105912B
:102F0000C16C41F00101C164C06C694600F0010070
:102F10000590A020009002200190002002900390D4
:102F2000052004904FF09040FEF79CFF06B010BDC6
:102F300000300140001002402DE9F84F9846164637
:102F40008A460446FFF7B8F8814694F85D000128E8
:102F500020D1BAF1000F6FD0002E6DD094F85C0034
:102F6000012817D0012784F85C70032084F85D00E5
:102F700000252566C4F838A0A687E6872564A4F84E
:102F80004450A4F846502565E564A068B0F5004FAC
:102F900003D00CE00220BDE8F88F2068016821F022
:102FA000400101602068016841F4804101602068AF
:102FB0000168490603D4016841F040010160E068FE
:102FC000B0F5E06F606826D908B1012E1FD1A06B63
:102FD00021680088C86006E020688168890709D5F3
:102FE000A16B0988C160A06B801CA063E08F401EAC
:102FF000E0870CE0FFF760F8A0EB0901414503D33F
:10300000B8F1FF3F03D04BE0B8F1000F48D0E08F9C
:103010000028E1D139E008B1012E33D1E08F012839
:10302000A06B03D921680088C86010E0216800788F
:10303000087314E0E08725E043E020688168890791
:1030400013D5E18F0129A16B07D90988C160A06B55
:10305000801CA063E08F801EECE709780173A06BF1
:10306000401CA063E08F401EE4E7FFF725F8A0EBCB
:103070000901414503D3B8F1FF3F03D010E0B8F197
:10308000000F0DD0E08F0028D7D14A464146204698
:1030900001F01AF908B120202066A06830B109E0DB
:1030A00084F85D7084F85C50032074E72068C16880
:1030B0008068009084F85D7004F85C5F60680028A8
:1030C000F3D0012067E700000248016B21F0010105
:1030D000016370470000014003490A6B22F00202BD
:1030E00002430A63704700000000014070477047C8
:1030F0007047704770477047F0B590F83C20012A40
:1031000043D0012580F83C50022280F83D2003681E
:103110005A689C681E4E1F4FDFF87CC0B34203D034
:10312000BB4201D0634504D122F4700E4A6842EAE2
:103130000E02DFF868E002EA0E02D1F800E04EEA83
:10314000020EC3F804E00268B24212D0B2F1804F1E
:103150000FD0134B9A420CD0124B9A4209D0124B0B
:103160009A4206D0BA4204D0104B9A4201D062452E
:1031700004D1896824F080031943916080F83D50A0
:10318000002180F83C100846F0BD0220F0BD000090
:10319000002C014000340140005001408FFFFFFD32
:1031A0000004004000080040000C004000400140C6
:1031B000704710B5040003D094F83D0010B107E04B
:1031C000012010BD002084F83C00204600F022F8C9
:1031D000022084F83D00211D206801F0DDF9012066
:1031E00084F8480084F83E0084F83F0084F84000EA
:1031F00084F8410084F8420084F8430084F84400D5
:1032000084F8450084F8460084F8470084F83D00BF
:10321000002010BD38B505460068254A2549904272
:1032200016D1086E40F400600866086E002200F4B3
:103230000060009005211920FEF7D0FF1920FEF74D
:10324000BFFF00220F211A20FEF7C8FF1A202AE034
:10325000B0F1804F2BD1886D40F001008865886DFA
:10326000164C00F001000090134820603B20606085
:103270001020A06000208021C4E903018900616161
:103280008900A1612021C4E907102046FEF7DCF87F
:1032900008B1FDF75BFB2C63002205211C20A56211
:1032A000FEF79CFF1C20BDE83840FEF789BF38BD03
:1032B000002C0140001002401C000240400400208D
:1032C00090F83D10012901D001207047022180F8BB
:1032D0003D1000681249884214D0B0F1804F11D0DF
:1032E000104988420ED0104988420BD00F498842BD
:1032F00008D00F49884205D00E49884202D00E49B5
:10330000884207D181680D4A1140062906D0B1F5DF
:10331000803F03D0016841F0010101600020704747
:10332000002C01400004004000080040000C004058
:1033300000340140004001400050014007000100FE
:1033400090F83D10012901D001207047022180F83A
:103350003D100168CA6842F00102CA600068134962
:10336000884214D0B0F1804F11D0114988420ED05C
:10337000104988420BD01049884208D00F49884232
:1033800005D00F49884202D00E49884207D1816892
:103390000D4A1140062906D0B1F5803F03D00168DF
:1033A00041F001010160002070470000002C014045
:1033B0000004004000080040000C004000340140C0
:1033C00000400140005001400700010070B5044674
:1033D00090F83C00002501281CD0012684F83C60B0
:1033E000022084F83D0022689068334B184020F496
:1033F0007F4090600868B0F5005F2ED016DC402852
:1034000049D009DCD0B1102818D0202816D0302897
:1034100049D113E0022070BD50282AD0602830D056
:1034200070280FD0B0F5805F3DD13DE010F00F0F58
:1034300039D10111A1F58031072934D8226801461C
:10344000104625E0CB68D1E90121206801F098F908
:103450002068816841F0770109E0CB68D1E901215A
:10346000206801F08DF92068816841F48041816015
:103470001AE0CA684968206801F056FB50212068AC
:1034800006E0CA684968206801F05FFB6021206897
:1034900001F080F908E0CA684968206801F044FB3F
:1034A00040212068F4E7012584F83D60002084F87D
:1034B0003C00284670BD000088FFCEFF7047704773
:1034C0002DE9F04104460068C66805694FF0000721
:1034D000A90713D5B10711D5F91E01610120207785
:1034E000206880698007204602D0FFF7E8FF04E0EB
:1034F00000F0E0F8204600F0A2F92777680716D51B
:10350000700714D521686FF004000861022020774D
:103510002068806910F4407F204602D0FFF7CFFF7B
:1035200004E000F0C7F8204600F089F92777280763
:1035300015D5300713D521686FF008000861042005
:1035400020772068C0698007204602D0FFF7B7FFC8
:1035500004E000F0AFF8204600F071F92777E806A4
:1035600016D5F00614D521686FF010000861082008
:1035700020772068C06910F4407F204602D0FFF712
:103580009EFF04E000F096F8204600F058F92777F7
:10359000E80708D0F00706D021686FF00100086145
:1035A000204600F0DDFA280601D4A80408D530062C
:1035B00006D521686FF4025008612046FFF797FD99
:1035C000E80508D5300606D521686FF480700861DB
:1035D0002046FFF78BFD680608D5700606D52168E2
:1035E0006FF040000861204600F0C4FAA80608D534
:1035F000B00606D521686FF0200008612046FFF76D
:1036000077FDE80208D5F00206D521686FF4801036
:1036100008612046FFF76EFDA80208D5B00206D566
:1036200021686FF4001008612046FFF762FD680210
:1036300008D5700206D521686FF480000861204625
:10364000FFF759FD28020AD5300208D521686FF42A
:10365000000008612046BDE8F041FFF7A9BDBDE8C4
:10366000F081000010B586B0044614216846FCF7CE
:1036700099FF2068B0F1804F16D10C48C16C41F021
:103680000201C164C06C694600F0020005904FF46D
:103690000060009002200190002002900390012021
:1036A00004900348FEF7DEFB06B010BD0010024098
:1036B00000040048704770B5044690F83C000026AE
:1036C0000D4601280BD0012084F83C000C2A4AD07A
:1036D00007DC82B1042A20D0082A06D131E002207A
:1036E00070BD102A53D0142A63D00126002084F81C
:1036F0003C00304670BD206801F056F820688169B2
:1037000041F0080181612068816921F00401816133
:10371000206881692A69114311E0206801F09AF854
:103720002068816941F4006181612068816921F428
:1037300080618161206881692A6941EA0221816191
:10374000D4E7206801F0D6F82068C16941F008018B
:10375000C1612068C16921F00401C1612068C169AB
:103760002A69114311E0206801F014F92068C16949
:1037700041F40061C1612068C16921F48061C161C7
:103780002068C1692A6941EA0221C161AEE7206867
:1037900001F050F92068016D41F0080101652068D1
:1037A000016D21F0040101652068016D2A69114352
:1037B00011E0206801F07AF92068016D41F40061A0
:1037C00001652068016D21F4806101652068016D4B
:1037D0002A6941EA0221016588E710B5040003D097
:1037E00094F83D0010B107E0012010BD002084F8DE
:1037F0003C00204600F022F8022084F83D00211D04
:10380000206800F0C9FE012084F8480084F83E00DA
:1038100084F83F0084F8400084F8410084F84200B6
:1038200084F8430084F8440084F8450084F8460096
:1038300084F8470084F83D00002010BD70477047B1
:10384000704700002DE9F04117460D0004464FF087
:10385000000610D0042D15D0082D1AD00C2D1FD025
:10386000102D24D094F84300022827D094F8430068
:10387000012826D07CE094F83E0002281ED094F85F
:103880003E00F5E794F83F00022817D094F83F0077
:10389000EEE794F84000022810D094F84000E7E7E3
:1038A00094F84100022809D094F84100E0E794F828
:1038B0004200022802D094F84200D9E70220BDE875
:1038C000F0819FB393B35749574ADFF860C1022094
:1038D00055B1042D19D0082D29D00C2D38D0102D1C
:1038E00048D084F8430047E084F83E00606AC16233
:1038F000606A39460263606AC0F834C02268606A50
:103900003432FDF701FE88B938E084F83F00A06A40
:10391000C162A06A39460263A06AC0F834C0226856
:10392000A06A3832FDF7F0FD00B92CE020E084F801
:103930004000E06AC162E06A39460263E06AC0F8AA
:1039400034C02268E06A3C32FDF7DEFD80B91FE03A
:1039500084F84100206BC162206B39460263206B02
:10396000C0F834C02268206B4032FDF7CDFDA0B115
:103970000120A4E784F84200012650E02068C168D5
:1039800041F400710DE02068C16841F4806108E0F5
:103990002068C16841F4006103E02068C16841F417
:1039A0008051C16001222946206800F067FE20494D
:1039B0002068204A204B214D88420BD0904209D0EC
:1039C000984207D01E4FB84204D01E4FB84201D0D3
:1039D000A84203D1476C47F40047476420688842F7
:1039E00011D0B0F1804F0ED0174988420BD0174943
:1039F000884208D01649884205D0904203D09842A8
:103A000001D0A84207D18168124A1140062906D088
:103A1000B1F5803F03D0016841F0010101603046FB
:103A20004DE7000097460008F54600082D470008BE
:103A3000002C014000340140004001400050014092
:103A400000440140004801400004004000080040DC
:103A5000000C00400700010070B50D0004464FF057
:103A6000000607D0042D0CD0082D11D00C2D16D037
:103A7000012658E02068C16821F40071C160606AC5
:103A800013E02068C16821F48061C160A06A0CE085
:103A90002068C16821F40061C160E06A05E0206827
:103AA000C16821F48051C160206BFDF733FC002216
:103AB0002946206800F0E2FD234B41F211112068F5
:103AC0008A0098420ED0214B98420BD0204B98424E
:103AD00008D0204B984205D01F4B984202D01F4B74
:103AE000984209D1036A0B4206D1036A134203D1FB
:103AF000436C23F4004343642068036A0B4206D1FD
:103B0000016A114203D1016821F001010160012025
:103B10005DB1042D0CD0082D0DD00C2D0ED0102D24
:103B20000FD084F84300304670BD84F83E00FAE7B9
:103B300084F83F00F7E784F84000F4E784F8410098
:103B4000F1E784F84200EEE7002C01400034014028
:103B50000040014000440140004801400050014045
:103B600000680349884201D1FEF7ACBA70470000F3
:103B700000480140704790F88410012918D00121B5
:103B800080F884102421C0F8881001680A680B6846
:103B900023F001030B6022F000510022426603680B
:103BA00019602021C0F8881080F8842010467047E2
:103BB0000220704770B5044690F8840001281DD09B
:103BC000012084F884002420C4F888002068056857
:103BD000026822F0010202602068826822F06062BE
:103BE0000A438260204601F023F820680560202007
:103BF000C4F88800002084F8840070BD022070BDE5
:103C000070B5044690F8840001281DD0012084F886
:103C100084002420C4F8880020680568026822F027
:103C2000010202602068826822F060420A438260DA
:103C3000204600F0FDFF206805602020C4F88800C1
:103C4000002084F8840070BD022070BD10B504000F
:103C500003D0D4F8880010B107E0012010BD002087
:103C600084F88400204600F027F82420C4F8880057
:103C70002068016821F001010160A06A10B12046AE
:103C800000F0F8FF204601F0D9F80128E6D02068BE
:103C9000416821F4904141602068816821F02A0147
:103CA00081602068016841F0010101602046BDE8A3
:103CB000104001F043B8000070B59CB006461421D6
:103CC00015A8FCF76FFC54216846FCF76BFC2249F1
:103CD000306888423ED101200025CDE900056846C4
:103CE000FEF798FB08B1FCF731FE1C49086E40F462
:103CF00080400866086E00F480401A90C86C40F05E
:103D00000100C864C86C15A900F001001A904FF4B6
:103D1000C06015900220CDE916050720CDE91850A6
:103D20004FF09040FEF79EF80E4C0D482060182092
:103D3000C4E901058020C4E903506561A561E5611E
:103D400020462562FDF780FB08B1FCF7FFFDC6F8B1
:103D50008040A6621CB070BD0038014000100240D7
:103D60000800024034050020FEE700EB8100006EF1
:103D700000F0F84070478068C0F3C000704780686A
:103D8000C0F3800070478068C0F380007047042350
:103D900003EAD15310B518444369C1F30451072411
:103DA0008C40A3438A401343436110BD00EB810064
:103DB000016E21F0004111430166704730B58BB0B0
:103DC000002408940994202168460A94FCF7EAFB31
:103DD0001C484FF0A041042501604FF44031C0E978
:103DE0000114C4600461C0E90545047744770121EA
:103DF000016280F82440C462046380F83840C463E0
:103E000080F84040FDF734F908B1FCF79FFD08A9A0
:103E10000C480894FCF746FE08B1FCF797FD0A48E9
:103E200000900620CDE901047F200594CDE903052B
:103E300069460448FCF7E6FE002801D0FCF786FD41
:103E40000BB030BDAC010020000084CB114808B598
:103E5000816C41F004018164816C01F004010091E6
:103E6000816C41F001018164806C002200F001004E
:103E7000009005210B20FEF7B1F90B20FEF7A0F909
:103E8000002205210C20FEF7A9F9BDE808400C200E
:103E9000FEF796B90010024070B51448124900228E
:103EA000E0E80212012140F8082B0A2340F8042C14
:103EB00000F8011B032400F8011B112500F8021B68
:103EC000E0E80231062338C01AC0082140F834194E
:103ED000C0E90E120548FDF77BFD002803D0BDE8C0
:103EE0007040FCF733BD70BD006400401802002034
:103EF00070B5144812490022E0E80212012140F88E
:103F0000082B0A2340F8042C00F8011B032400F8B6
:103F1000011B112500F8021BE0E80231062338C01E
:103F20001AC0082140F83419C0E90E120548FDF7FF
:103F30004FFD002803D0BDE87040FCF707BD70BD01
:103F4000006800407C020020114810B50F49016054
:103F5000002141608160C16001744174817410224C
:103F6000426101228261C261026242628262C26275
:103F7000C0E90C218163C163FDF72AFD002803D04D
:103F8000BDE81040FCF7E2BC10BD0000006C004032
:103F9000E002002010B5124A0021124801F062F937
:103FA000114C0F4A002120602432104801F05AF9C8
:103FB0000B4A6060483200210D4801F053F9084A6D
:103FC000A0606C3200210B4801F04CF9044AE0601B
:103FD00090320021084801F045F9206110BD000031
:103FE000086A0008A944000800000020D14B00081E
:103FF0006F4B0008814B0008774B000830B587B045
:1040000014216846FCF7CEFA2248C16C41F0040145
:10401000C164C16C01F004010591C16C41F0200143
:10402000C164C16C01F020010591C16C41F0010136
:10403000C164C16C01F001010591C16C41F0020144
:10404000C164C06C144D00F00200059000223721BD
:104050002846FEF72BF800244FF4C040CDE90004B9
:1040600069460E480294FDF7FDFE1820CDE90004D4
:1040700069464FF090400294FDF7F4FE372000901F
:104080000120CDE90104694628460394FDF7EAFEC4
:1040900007B030BD0010024000040048000800488E
:1040A000124810B5104901604FF48271416000213F
:1040B0004FF41062C0E902124FF400720161C0E9CE
:1040C00005121822C0E9072107224162C0E90A123D
:1040D000016308214163FEF789FE002803D0BDE893
:1040E0001040FCF733BC10BD0030014044030020F9
:1040F00010B588B0002418480594069403940494DD
:1041000000940194134902940160AA21C0E90114AA
:104110004FF47A71C0E9031444618461FFF749F8F0
:1041200008B1FCF713FC4FF48050039003A90A4830
:10413000FFF74CF908B1FCF709FC009401946946BB
:1041400005480294FEF7D8FF002801D0FCF7FEFBDB
:1041500008B010BD002C0140A803002010B58EB09F
:1041600000240794089409940A940B940C941C213D
:1041700068460D94FCF716FA1D484FF08041C0E9DF
:104180000014D121C0E90241802104618161FFF75F
:1041900010F808B1FCF7DAFB4FF48050079007A93C
:1041A0001348FFF713F908B1FCF7D0FB1048FFF7ED
:1041B00014FB08B1FCF7CAFB0B940BA90C480D9437
:1041C000FEF79AFF08B1FCF7C1FB6020CDE90004BF
:1041D00002940C22694606480494FFF76CFA08B171
:1041E000FCF7B4FB0248FFF73DFA0EB010BD00002B
:1041F000F4030020184810B5164901604FF4E1316E
:104200004160002181600C22C160C0E9041281611B
:10421000C161016241628162FFF718FD08B1FCF7DC
:1042200095FB00210C48FFF7EBFC08B1FCF78EFB77
:1042300000210948FFF7BEFC08B1FCF787FB0648E0
:10424000FFF799FC002803D0BDE81040FCF77EBBC7
:1042500010BD000000380140A00400200C4810B53B
:104260000A4901600821017102214171C1710021D7
:10427000017241728172C172FDF7F4FF002803D010
:10428000BDE81040FCF762BB10BD0000005C0040C0
:1042900094050020FEE7FEE710EE100A064988426A
:1042A00001DA9FED060ADFED060A9FED061A70EEB1
:1042B000600A81EE200A70479A9999409A9999402C
:1042C000CDCC4C3F33333342F8B515460E460B4642
:1042D0000092044600224FF4C05100F019F888B94A
:1042E0003346002280212046009500F081F848B92D
:1042F000334600224FF4C0612046009500F008F8D4
:10430000002804D0206E40F0200020660320F8BD75
:104310002DE9FE4F4FF0000A984617460E46044618
:104320000C9D8DF804A0FDF7C7FE411BA8EB01050D
:10433000FDF7C2FE814620684FF4C06B0C3002903E
:104340002A480068C0EBC00000EB8000000D684305
:10435000009043E05E4506D12FB9029800788DF8B1
:1043600004009DF80400B8F1FF3F37D0FDF7A4FE2C
:10437000A0EB0900A84203D215B1009858B32BE076
:104380002068416821F0E00141606068B0F5827FFB
:104390000BD1A068B0F5004F02D0B0F5806F04D10A
:1043A0002068016821F040010160A06AB0F5005F5B
:1043B00009D12068016821F400510160206801687A
:1043C00041F400510160012084F85D0084F85CA094
:1043D0000320BDE8FE8F0025401E00902068806805
:1043E0003040B842B6D10020F3E70000240000209E
:1043F0002DE9F8431E46914688460446089DFDF780
:104400005BFE401B351AFDF757FE0746254800683E
:10441000C0F3CB30684338E0701C37D0FDF74CFE5A
:10442000C01BA84203D215B1009860B32CE02068ED
:10443000416821F0E00141606068B0F5827F0BD1F6
:10444000A068B0F5004F02D0B0F5806F04D12068AD
:10445000016821F040010160A06AB0F5005F09D158
:104460002068016821F4005101602068016841F46E
:1044700000510160012084F85D00002084F85C0098
:104480000320BDE8F8830025401E00902068816865
:1044900038EA010004D000214945BDD10020F0E7F1
:1044A0000121F9E724000020012000F0A0FEFBE735
:1044B00010B54FF0E020006902F0EAF8012803D0BF
:1044C000BDE8104001F018BE10BD00B593B0382112
:1044D0006846FCF767F814210EA8FCF763F8002083
:1044E000FDF732FF222000904FF4807003904020AF
:1044F00004900120069002200421CDE908015521F5
:10450000CDE90A1007900621CDE90C106846FEF7A8
:104510006BFA08B172B6FEE70F200E9003200F90E1
:10452000002010901190129004210EA8FEF7F2F8CE
:10453000002801D072B6FEE713B000BD0248016842
:1045400041F470010160704788ED00E0084810B543
:10455000006810B10648FEF7B3FF0648006800285F
:1045600004D0BDE810400348FEF7AABF10BD00000C
:10457000A80300207008002003480068002802D02B
:104580000148FEF79DBF7047A80300200148FEF7D1
:1045900097BF0000F40300202DE9F04F02682E4B76
:1045A0002E4E2F4FDFF8BCC02F4C304D4FF0804BBC
:1045B00098420BD0584509D0B04207D0B84205D038
:1045C000604503D0A04201D0A84204D122F0700877
:1045D0004A6842EA0802DFF89880DFF89890DFF82E
:1045E00098A0984211D058450FD0B0420DD0B84293
:1045F0000BD0604509D0A04207D0404505D04845C2
:1046000003D0504501D0A84203D122F44076CA68B5
:1046100032434E6922F08002324302608A68C262ED
:104620000A688262984209D0A04207D0404505D06E
:10463000484503D0504501D0A84201D10969016322
:10464000012141610169C90703D0016921F001011C
:104650000161BDE8F08F0000002C01400004004023
:1046600000080040000C00400034014000500140B0
:1046700000400140004401400048014010B501F0F5
:104680001F030121046A99408C430462016A9A4025
:104690001143016210BD10B5846A0121626A824231
:1046A00005D12177C069F8B984F83E101CE0A26AF0
:1046B000824206D102222277C069A8B984F83F104D
:1046C00012E0E26A824206D104222277C06958B918
:1046D00084F8401008E0226B824205D1082222773C
:1046E000C06908B984F841102046FFF7A8F80020F7
:1046F000207710BD10B5846A616A814201D1012022
:104700000DE0A16A814201D1022008E0E16A814204
:1047100001D1042003E0216B814201D108202077E0
:104720002046FFF78DF80020207710BD10B5846A71
:104730000121626A824203D1217784F83E1019E098
:10474000A26A824204D10220207784F83F1011E04F
:10475000E26A824204D10420207784F8401009E004
:10476000226B824204D10820207784F8411001E0B6
:1047700084F83D102046FEF7A1FE0020207710BDF2
:1047800010B5846842EA032224F47F440A4322439A
:10479000826010BD8268034B1A400A4342F0070151
:1047A000816070478FFFCFFF2DE9F047056A026AED
:1047B00022F001020262436882691F4C25F0020563
:1047C00022400C6822F0030214438A681C4E2A43DC
:1047D0001A4D1C4FDFF870C0DFF87090DFF870A042
:1047E000A84209D0B04207D0B84205D0604503D0F6
:1047F000484501D0504506D122F00808CA6842EA6F
:10480000080222F00402A84209D0B04207D0B84200
:1048100005D0604503D0484501D0504505D14D69CC
:1048200023F440731D438B692B43436084614968C3
:1048300041630262BDE8F0878FFFFEFF002C01405C
:104840000034014000400140004401400048014064
:1048500000500140F0B5056A026A22F010020262BF
:10486000426883691C4C1E4E23400C6823F440733D
:1048700043EA042425F020038D681A4F43EA051308
:10488000164DA84203D0B04201D0B84207D1D1F8AA
:104890000CC023F0800343EA0C1323F04003A8422A
:1048A0000CD0B0420AD0104DA84207D00F4DA842FC
:1048B00004D00F4DA84201D0B84207D14D6922F46F
:1048C000406242EA85028D6942EA85024260846163
:1048D000496881630362F0BDFF8FFFFE002C014039
:1048E00000340140005001400040014000440140BC
:1048F00000480140F0B5056A026A22F48072026243
:104900004368C2691C4C1E4E22400C6822F0030210
:10491000144325F400728D681A4F42EA0522174DA0
:10492000A84203D0B04201D0B84207D1D1F80CC0A0
:1049300022F4006242EA0C2222F48062A8420CD0E7
:10494000B0420AD0104DA84207D0104DA84204D062
:104950000F4DA84201D0B84207D14D6923F440530E
:1049600043EA05138D6943EA05134360C46149684E
:10497000C1630262F0BD00008FFFFEFF002C01400A
:10498000003401400050014000400140004401401B
:1049900000480140F0B5056A026A22F480520262C2
:1049A0004268C3691C4C1E4E23400C6823F44073BC
:1049B00043EA042425F400538D681A4F43EA053373
:1049C000164DA84203D0B04201D0B84207D1D1F869
:1049D0000CC023F4004343EA0C3323F48043A84281
:1049E0000CD0B0420AD0104DA84207D00F4DA842BB
:1049F00004D00F4DA84201D0B84207D14D6922F42E
:104A0000404242EA85128D6942EA85124260C461E1
:104A1000496801640362F0BDFF8FFFFE002C014076
:104A2000003401400050014000400140004401407A
:104A30000048014030B5056A026A22F48032026201
:104A40004268036D124C23400C681C4325F400336C
:104A50000D8943EA05430F4DA8420ED00E4DA842E2
:104A60000BD00E4DA84208D00D4DA84205D00D4DDB
:104A7000A84202D00C4DA84204D14D6922F48032E4
:104A800042EA05224260046549688164036230BDE0
:104A90008FFFFEFF002C0140003401400040014028
:104AA00000440140004801400050014030B5046A14
:104AB000026A22F4801202624268036D134D24F4EC
:104AC00000142B400D6843EA05230D8944EA055480
:104AD0000F4DA8420ED00F4DA8420BD00E4DA8424C
:104AE00008D00E4DA84205D00D4DA84202D00D4D64
:104AF000A84204D14D6922F4802242EA8522426014
:104B000003654968C164046230BD0000FF8FFFFE89
:104B1000002C0140003401400040014000440140AD
:104B2000004801400050014010B5036A046A24F0B7
:104B300001040462846924F0F00444EA021423F0BE
:104B40000A020A438461026210BD10B5036A046A56
:104B500024F010040462846923F0A00324F4704458
:104B600044EA023243EA01118261016210BD012070
:104B700000F03DFBFBE7012000F039FBFBE7000004
:104B80002DED028B0C48FEF7DBFB0C48FBF733FFE7
:104B90000B48FBF730FFFBF79FFD9FED0A8A0A4C9D
:104BA000094884ED008AFBF71DFE0848FBF702FE6A
:104BB0000A2000F01CFBF3E7A803002018020020E5
:104BC0007C020020DB0FC9BF7800002024010020F8
:104BD00008B51548FEF774FB4FF404752B46134ACD
:104BE0000C211148FEF72EFE4FF47A76002404F1D2
:104BF0000C0303EB4303DB000020009301463C223F
:104C00000A4B00F0C1FF641C0A2CF0DB0C210648A3
:104C1000FEF722FF2B46054A0C210348FEF712FE41
:104C2000304600F0E4FAE1E7F40300202409002014
:104C300030B5416EB9B1026891689268C1F34261C2
:104C40000B4B520F9C5CE50003F10804A25CB5FB22
:104C5000F2F2A0F86A205A5C615CD200B2FBF1F17A
:104C6000A0F8681030BD0121A0F86A10F8E7000034
:104C7000E46A000890F82810090706D501684A6818
:104C8000836B22F400421A434A6090F82810C90747
:104C900006D001684A68C36A22F400321A434A60A7
:104CA00090F82810890706D501684A68036B22F43A
:104CB00080321A434A6090F82810490706D50168E7
:104CC0004A68436B22F480221A434A6090F8281005
:104CD000C90606D501688A68C36B22F480521A435C
:104CE0008A6090F82810890606D501688A68036CE6
:104CF00022F400521A438A6090F82810490611D510
:104D000001684A68436C22F480121A434A60416C7D
:104D1000B1F5801F06D101684A68836C22F4C00295
:104D20001A434A6090F82810090606D501684A68B7
:104D3000C06C22F4002202434A6070472DE9F84318
:104D400000260446C0F89060FDF7B6F9804620685A
:104D500000684FF0200500076FF07E4713D54346EB
:104D6000002229042046009700F0B4F958B12168C8
:104D700051E8000F20F0800041E80002002AF6D13F
:104D8000C4F8885021E020680068400722D54346D7
:104D900000224FF480012046009700F09BF9C8B133
:104DA000216851E8000F20F4907041E80002002AC9
:104DB000F6D12068083050E8001F21F0010140E8DA
:104DC0000012002AF5D1C4F88C5084F884600320C6
:104DD000BDE8F883C4F88850C4F88C5044F86C6F70
:104DE000666026760020F3E710B5026852E8001FDF
:104DF00021F4907142E80013002BF6D10E4B0268AB
:104E0000083252E8001F194042E80014002CF6D185
:104E1000C16E012908D1016851E8002F22F010026B
:104E200041E80023002BF6D12021C0F88C1000218E
:104E3000C166416710BD0000FEFFFFEF2DE9F041A4
:104E40000446016880682269E369104362690025AD
:104E50001A431043DFF84CC20A68934B1A400243CE
:104E60000A6020684168E26821F4405111434160C2
:104E70002168A069614501D0226A10438A688B4B82
:104E80001A4002438A602068C16A626A21F00F01F9
:104E90001143C1628649236886488B420DD1D0F800
:104EA000880010F0030006D0012867D0022854D0F3
:104EB000032851D164E001204FE07F498B420BD1A0
:104EC000D0F8880010F00C0047D0042845D00828FE
:104ED00052D00C2840D153E078498B420BD1D0F806
:104EE000880010F0300038D0102847D0202843D058
:104EF000302831D144E072498B420BD1D0F8880080
:104F000010F0C00029D0402838D0802834D0C028E4
:104F100022D135E06B498B420ED1D0F8880010F4D5
:104F200040701AD0B0F5807F28D0B0F5007F23D034
:104F3000B0F5407F10D123E063450DD1D0F8880053
:104F400010F4406009D0B0F5806F17D0B0F5006F55
:104F500012D0B0F5406F13D010205B4A5B4F002693
:104F60004FF40041634539D160B102280DD00428C7
:104F70000DD0082831D10EE00220EEE70420ECE746
:104F80000820EAE7FDF7D4FC03E0114603E0FDF753
:104F9000F3FC01007BD0606A37F810206768B1FB32
:104FA000F2F007EB4703834269D8B0EB073F66D8BE
:104FB000002308461946FBF7FFF9090241EA106190
:104FC00002027808101871413A460023FBF7F4F901
:104FD0003F4AA0F54071914257D950E0E3694FF63E
:104FE000EF788B422BD1092849D2DFE800F0050881
:104FF0000D48254848480E00FDF79AFC01E0FDF7F2
:10500000A9FC010001D142E01146606A37F81000A6
:10501000B1FBF0F04100606801EB5001B1FBF0F131
:10502000A1F1100040452AD84FF6F07201EA0200C3
:10503000C1F34201084328E0FDF79EFCE1E709289F
:105040001DD2DFE800F005080D1C1E1C1C1C0E0004
:10505000FDF76EFC01E0FDF77DFC010001D116E0DB
:105060001146606A37F81000B1FBF0F1606801EB9F
:105070005001B1FBF0F0A0F11001414504D9012528
:1050800005E0FDF779FCE8E780B22168C8600120FF
:10509000A4F86A0024F8680F2846E6602661BDE897
:1050A000F081000000800040F369FFCFFFF4FF11A2
:1050B0000038014000100240004400400048004019
:1050C000004C0040005000400024F400CC6A00086E
:1050D000FFFC0F002DE9F047994617460D460446A0
:1050E0004FF00008089E33E0701C31D0FCF7E4FF5D
:1050F000A0EB0900B04218D8BEB12068016849078A
:1051000026D5802D24D0402D22D0C169C94309075E
:105110000DD4082505622046FFF766FEC4F89050BE
:1051200084F884800120BDE8F0870320FBE7C06994
:10513000C04300050CD421684FF40060086220468B
:10514000FFF752FE2020C4F8900084F88480ECE73A
:105150002068C06935EA000004D00020B842C3D0FE
:105160000020E0E70120F9E7012120F8401F00219D
:105170000180818001820846704730F8401F4BF65D
:1051800080729143018000207047FEE70907090EF5
:10519000002804DB00F1E02080F80014704700F0E4
:1051A0000F0000F1E02080F8141D7047FCF792FF1B
:1051B000FFF78BF9FEF722FFFEF748FEFEF76CFEC5
:1051C000FEF7FCFDFEF76CFFFEF792FFFFF712F80B
:1051D000FEF78EFEFEF7B8FEFEF7C0FFFFF73EF8C3
:1051E00000F012F8FEF7D6FE00F020F8FEE710B54A
:1051F000EFF3058111B16FF0050403E0002408B15D
:1052000000F01AFE204610BDEFF3058010B16FF0DC
:10521000050070470448016811B14FF0FF30704736
:1052200001210160002070477C01002010B5EFF3E0
:10523000058010B16FF0050010BD08480168012914
:1052400002D04FF0FF3010BD054A002182F8141D36
:105250000221016000F058FE002010BD7C010020FA
:105260000BE000E02DE9FF414FEA01034FF000059C
:10527000EFF30581039549BB40B380271821002433
:105280004AB3166806B1344696691EB13146761E99
:10529000382E02D21679F60703D0002004B0BDE8FC
:1052A000F081566906B1B708D2F808C0BCF1000F0A
:1052B0000DD0D5685C2D18D312693AB136B18DE89E
:1052C00006103A46214601F0B8F903900DE0D66881
:1052D0005EB912694AB903AACDE90012BAB22146F1
:1052E00001F07EF9012800D003950398D6E700006D
:1052F0002DE9F041134C0F460546E6682068001D75
:1053000000F067FC681C07D137B12168BDE8F041A7
:105310000D48091D00F0ACBC20683544B54245601D
:10532000216805D2A06BBDE8F041091D00F088BCE2
:10533000606B091D00F084FCA06A854200D2A56262
:10534000BDE8F0812C0100207C1200202DE9F04105
:10535000054600F099FC2D4CA068401CA060206818
:105360002B4F10B1606930B32BE02560A068012895
:1053700027D1002606EB860007EB800000F052FCE8
:10538000761C382EF6D3234800F04CFC214814300C
:1053900000F048FC1F48283000F044FC1D483C3019
:1053A00000F040FC1B48503000F03CFC19486063A2
:1053B0001430A06305E02068E96AC06A884200D81A
:1053C0002560606A401C60626864E86A21698842FE
:1053D00000D9206100EB800007EB8000291D00F060
:1053E00047FC00F071FC606900280CD02068E96A75
:1053F000C06A884207D208494FF080500860BFF366
:105400004F8FBFF36F8FBDE8F08100002C010020AB
:10541000CC0D00202C12002004ED00E038B500F087
:1054200033FC104C2068C8B90F4800F0FBFB0E4855
:10543000143000F0F7FB0C48E060143020610A4B98
:105440000020F03B009003F1500210210A2000F0F0
:1054500069FE206010B105A100F0B8FCBDE838403D
:1054600000F032BC6801002080130020546D72519E
:105470000000000030B4026C0B46002A0BD0C1685B
:105480001144C1608468A14201D30168C16030BC8D
:105490001846FBF708B830BC70472DE9F041856B22
:1054A000174604460026026C82B1C7B1E068FAF7DD
:1054B000FAFFE168206C091AE1602268914202D289
:1054C000A168081AE060022F16D017E02068A8B97A
:1054D000A06801F055F906460020A0600EE0606863
:1054E000FAF7E1FF216C606808446060A1688842B7
:1054F00004D32068606001E005B16D1E6D1CA563DA
:105500003046BDE8F08110B5044690F8590058B116
:1055100001280CD002280FD0502080F31188BFF34F
:105520004F8FBFF36F8FFEE7206B00F0E1FB20464B
:10553000BDE8104000F0DCBB10BD00000F4847F68E
:10554000FF71420705D0C01D0C4A20F00700821AE7
:10555000891A0B4A00230144C2E900030839183AAA
:1055600021F0070111604B600B600B1AC0E90013BA
:1055700093604FF00040536050617047601A002004
:1055800098010020144E154CA6F29C474FF080580D
:10559000DFF84C9012E000BF00F076FBF068C568C1
:1055A000281D00F016FBA068401EA0606068401E29
:1055B000606000F089FB2846FFF7A5FF60680028BF
:1055C000EAD138680128F9D9C9F80080BFF34F8FB4
:1055D000BFF36F8FF2E70000681200202C0100205B
:1055E00004ED00E070B51D46049C51B1C4F80020E4
:1055F000C4E90F010121204600F0C8FD84F84C5099
:1056000070BD2460F4E700002DE9F05F8846DDE915
:105610000B941546834691009A460A9EA522206B5C
:10562000FAF7B8FF6FF00301206B01EB8501084426
:1056300020F00707780707D0502080F31188BFF3C8
:105640004F8FBFF36F8FFEE70025B8F1000F0FD02B
:105650005FF00000221818F8001082F8341018F8D3
:10566000001011B1401C1028F4D384F8435001E01D
:1056700084F83450382E00D33726E662C4E9136527
:10568000201D00F0DAFA04F1180000F0D6FA2461C7
:10569000C6F138006462A061656584F858505246CE
:1056A0005946384600F05AFA2060B9F1000F01D08F
:1056B000C9F80040BDE8F09F30B5114900E011463F
:1056C0000A688242FBD34B685C18844203D140686D
:1056D00018444860084643681C18944209D1084C95
:1056E000183C2468A24209D052681A4442600A68F1
:1056F00012680260814200D0086030BD0460F9E7A2
:105700009801002070B5002441600B4D006191426A
:1057100006D8D11A8269914206D2011D286907E094
:105720009A4203D2994201D3012403E0011DE868A3
:1057300000F086FA204670BD6801002010B50446CE
:1057400000F0A2FAA06B28B15FF0000400F0BCFAF0
:10575000204610BD0124F9E730B589B03C4D6EE01C
:105760000498002806DADDE90601059A90470498B6
:10577000002864DB069C606910B1201D00F029FA46
:1057800003A800F0D7F8024604980A2857D2DFE8A9
:1057900000F00505052D334A05052D3394F8280042
:1057A00040F0010084F828000599A069059B014498
:1057B0002046FFF7A7FF68B3216A2046884794F880
:1057C000280040073BD5002000900598A1690023E0
:1057D00042181946204601F0DDF8D8B9502080F370
:1057E0001188BFF34F8FBFF36F8FFEE714F8280FB8
:1057F00020F00100207022E094F8280040F0010021
:1058000084F828000598A06128B181181346204625
:10581000FFF778FF13E0502080F31188BFF34F8F1C
:10582000BFF36F8FFEE794F82800810703D420466A
:1058300000F05EFA03E020F0010084F82800002266
:1058400004A9286800F0F6FD002889D109B030BD10
:10585000680100202DE9FC410F46054600F098FB49
:1058600001A800F067F80446019818B101F000F8AB
:10587000BDE8FC81254EAFB130690068D0B3002788
:10588000291B3A46306800F0B5FA00F0F1FF002815
:10589000EED11F494FF080500860BFF34F8FBFF328
:1058A0006F8FE5E7A542EBD800F0E2FFF0682746EE
:1058B000C068C468201D00F08CF994F828004107E6
:1058C00019D5A0692B4641193A462046FFF71AFF21
:1058D000A8B100200346014600902A46204601F068
:1058E00059F860B9502080F31188BFF34F8FBFF390
:1058F0006F8FFEE707E020F0010084F82800216A9E
:1059000020468847B4E70127BAE700006801002075
:1059100004ED00E00648416B096829B1416BC96894
:10592000C9684968816270474FF0FF31FAE70000AB
:105930002C01002070B5054600F0B8FE064E044666
:10594000B068844203D200F009F8012000E0002092
:1059500028602046B46070BD68010020F8B5194D7C
:1059600020E0C068C4680668201D00F032F9216A92
:105970002046884794F82800400713D5A069304492
:10598000B04206D924616060211DE86800F058F932
:1059900008E000200346014600903246204600F011
:1059A000F9FF38B1E86801680029DAD12969C5E949
:1059B0000310F8BD502080F31188BFF34F8FBFF361
:1059C0006F8FFEE76801002008484068401C4FF0D8
:1059D000500080F3118804D0BFF34F8FBFF36F8F57
:1059E000FEE7BFF34F8FBFF36F8FFEE7A0010020EC
:1059F000074CE068016841B1C0680021D0F80000A0
:105A0000FFF728FFFFF7A8FEF3E701210020F7E7E3
:105A1000680100202DE9F041044600F035F994F9C1
:105A2000455004F1240609E0606A48B1304600F0B0
:105A3000E7FE08B100F02EFA6D1E6DB2002DF3DC0A
:105A40004FF0FF3684F8456000F03EF900F01CF995
:105A500094F9445004F1100709E0206948B1384630
:105A600000F0CEFE08B100F015FA6D1E6DB2002DEB
:105A7000F3DC84F84460BDE8F04100F025B9000093
:105A80002DE9F0410546002700F082FA324E3068D9
:105A900008B9FFF753FD706905424ED1C5B308350B
:105AA00068070ED005F00700C0F10800054468073C
:105AB00007D0502080F31188BFF34F8FBFF36F8F53
:105AC000FEE72DB37068854237D823481830014669
:105AD0000C6801E020460C466168A94202D22168A8
