:020000040800F2
:10000000C00A0020790200089F320008312F000842
:100010009D320008D5040008B9390008000000002E
:10002000000000000000000000000000A3320008F3
:10003000CD05000800000000A1320008A53200082C
:10004000930200089302000893020008930200083C
:10005000930200089302000893020008930200082C
:100060009302000893020008930200085D0500084F
:10007000930200089302000893020008930200080C
:1000800093020008930200089302000893020008FC
:1000900093020008D50500089302000893020008A7
:1000A000930200082133000893020008930200081D
:1000B00093020008930200089302000893020008CC
:1000C00093020008930200089302000893020008BC
:1000D00093020008930200089302000893020008AC
:1000E000930200089302000893020008930200089C
:1000F000930200089302000893020008930200088C
:10010000930200089302000893020008930200087B
:10011000930200089302000893020008930200086B
:10012000930200089302000893020008930200085B
:10013000930200089302000893020008930200084B
:10014000930200089302000893020008930200083B
:10015000930200089302000893020008930200082B
:10016000930200089302000893020008930200081B
:10017000930200089302000893020008930200080B
:1001800093020008930200089302000893020008FB
:100190009302000800000000E10500089302000837
:1001A00093020008930200089302000893020008DB
:1001B00093020008930200089302000893020008CB
:1001C00093020008930200089302000893020008BB
:1001D000930200089302000800F002F800F03CF8D7
:1001E0000AA090E8000C82448344AAF10107DA4592
:1001F00001D100F031F8AFF2090EBAE80F0013F0A8
:10020000010F18BFFB1A43F00103184758380000CC
:1002100078380000103A24BF78C878C1FAD852075D
:1002200024BF30C830C144BF04680C607047000070
:100230000023002400250026103A28BF78C1FBD8EF
:10024000520728BF30C148BF0B6070471FB503F08D
:10025000DBFB1FBD10B510BD00F007F91146FFF71D
:10026000F5FF03F0BAFB00F025F903B4FFF7F2FF46
:1002700003BC00F029F900000948804709480047FD
:10028000FEE7FEE7FEE7FEE7FEE7FEE7FEE7FEE746
:10029000FEE7FEE704480549054A064B70470000A3
:1002A00011330008D9010008C0040020C00A002052
:1002B000C0060020C006002053EA020C00F069804E
:1002C0002DE9F04B4FF00006002B1FBFB3FA83F56A
:1002D00003FA05F424FA05F65E4012BF1643B2FA9B
:1002E00082F502FA05F4C5F120051EBF22FA05FCCD
:1002F00044EA0C04203556EA044C4FEA144418BF73
:10030000641C4FF000084FF00009904271EB030CA1
:1003100039D3002919BFB1FA81F701FA07F6B0FA0B
:1003200080F700FA07F6C7F120071EBF20FA07FC86
:1003300046EA0C062037B6FBF4FCA7EB0507103F96
:1003400007F01F0BCBF120060CFA0BFB2CFA06F67C
:1003500044BFB3460026202FA4BF5E464FF0000BDB
:100360005BEA060C08BF4FF0010B19EB0B09ABFB66
:10037000027C48EB0608C01B06FB02CC0BFB03CC3F
:1003800071EB0C01C1E70B46024641464846BDE809
:10039000F08B13B54FF000004FF00001AFF3008079
:1003A000BDE81C40704710B5203AC0F00B80B1E8A2
:1003B0001850203AA0E81850B1E81850A0E818509A
:1003C000BFF4F5AF5FEA027C24BFB1E81850A0E8A3
:1003D000185044BF18C918C0BDE810405FEA827CBD
:1003E00024BF51F8043B40F8043B08BF7047D207D4
:1003F00028BF31F8023B48BF11F8012B28BF20F875
:10040000023B48BF00F8012B70474FF0000200B5D7
:10041000134694469646203922BFA0E80C50A0E827
:100420000C50B1F12001BFF4F7AF090728BFA0E8D5
:100430000C5048BF0CC05DF804EB890028BF40F8A1
:10044000042B08BF704748BF20F8022B11F0804FE3
:1004500018BF00F8012B70477047704770470000C5
:10046000004870475C04002070477546FFF7F8FFAE
:10047000AE4605006946534620F00700854618B091
:1004800020B5FFF707FFBDE820404FF000064FF012
:1004900000074FF000084FF0000B21F00701AC46B9
:1004A000ACE8C009ACE8C009ACE8C009ACE8C009D8
:1004B0008D46704710B50446AFF300802046BDE876
:1004C0001040FFF7D2BE000001491820ABBEFEE786
:1004D00026000200FEE708B501788DF800100179CA
:1004E0008DF80110017A8DF80210017B8DF8031050
:1004F000C169806941F001030522694600F0F8F8FE
:1005000008BD022929D15178D2F8023041EA0321ED
:1005100000EE101AB8EEC00A80ED010A117801F061
:10052000010101741178C1F3400141741178C1F3E4
:10053000800181741178C1F3C001C1741178C1F3D5
:10054000001101751178C1F3401141751178C1F3A3
:10055000801181751178C909C1757047014800F093
:1005600005BD00004C0300200D4902688A4201D2FB
:100570000C4901E00B492031D2B21423083AB2FBF6
:10058000F3F2436C02F01F0223F003031944816469
:1005900004498031C1640121914001657047000028
:1005A00008040240000802400179074A02EB810278
:1005B0004265054A4432491E826501F01F0201214D
:1005C0009140C16570470000FC080240704772B658
:1005D000FEE70000014800F0F2BE000040010020EC
:1005E000014800F0ECBE0000A4010020F0B5D1E904
:1005F00001650C692C430D68C6B145F080452C435C
:10060000D1E90665354391F820704E69406D46EAA0
:10061000076635438E8903EBC30300EBC30045EA4D
:100620000645E0E802450023084C0AE044EA854418
:10063000E6E7D618D55CD6F801601B1D45EA06250D
:1006400020C0CD68655D9D42F3D8F0BD123A000828
:10065000704730B50024039D0160B1F5006F03D3EE
:100660004FF08041416000E04460C0E90242C0E9CF
:100670000443C0E90654046230BD30B587B0054676
:1006800000240220CDE90240012004904FF4A06034
:100690000590019440F28C70069001A9284600F064
:1006A000B8FD08B1FFF7D4FF022200231146284607
:1006B000009400F0DCFD08B1FFF7CAFF284601F006
:1006C0002CF908B1FFF7C4FF00220121284600F0F1
:1006D0000BFD08B1FFF7BCFF00224FF400212846B4
:1006E00000F002FD002801D0FFF7B2FF07B030BDD7
:1006F00070B505468AB01E464FF400100C464310F4
:100700000090314601A8FFF7A4FF242201A9054863
:10071000FFF749FE224601A9284600F055FD0AB020
:1007200070BD0000140400202DE9F04F044690F83D
:1007300058009BB00F464FF0000B012812D001204B
:1007400084F8580000261796189620684FF0A048A5
:10075000DFF81C91DFF81CA1474D404506D1284623
:10076000009508E002201BB0BDE8F08F48450AD193
:100770005046CDF800A002F0EAFB0090206802F09D
:10078000E6FB40B109E0E06D40F02000E06584F850
:1007900058600120E7E7009850B1E06D40F020007C
:1007A000E0654FF0010B00BF84F858605846DAE767
:1007B00020684146884201D0A84201D12F4800E07C
:1007C0002F48D7F800C02F4B40F61F72BCF1000F26
:1007D0002DD0D0F808C094F838802CF4604C4CEA46
:1007E000483CD7F804804CEA080CC0F808C0D4F89C
:1007F00000C08C4501D0AC4504D18968AB6801F0DC
:10080000010109E0D9F80810DAF8085001F00101F7
:1008100005F001059B68294303F001031943C3D187
:10082000BB68396819438368934319431DE087689F
:1008300027F46047876027688F4201D0AF4204D118
:100840008968AB6801F0010109E0D9F80810DAF80D
:10085000085001F0010105F001059B68294303F0F0
:1008600001031943A0D18168914381609CE7000096
:10087000000400500005005000010050000300502B
:1008800000070050000600502DE9F84F00270446ED
:10089000009790F85800DFF81C840D46B9460128EF
:1008A00011D0012684F85860206802F04CFB60B13A
:1008B000E06D40F02000E0655FF0010784F858909B
:1008C0003846BDE8F88F0220FBE7D5E900210C236C
:1008D000206803EA91131844036B01F01F014FF0E5
:1008E0001F0C0CFA01FCC2F3846223EA0C038A4059
:1008F00013430363206802F026FB8246206802F05F
:100900001EFB5AEA00003CD1AA6829682068B2F1AF
:10091000004F37D002F01FFB2068416921F00041F1
:10092000416120686969C268C2F3C1025200914006
:100930002A69042A31D000EB82002B68026EDFF8AE
:1009400078C303F0F84302EA0C020B431A4342F067
:100950000041016622682869A96902EB8000026EE5
:1009600022F080720A430266297F226828690129E1
:1009700010D0002102EB8000026E22F000720A43C8
:1009800002667DE0002202F0E6FA2068416941F04B
:100990000041C5E74FF00071ECE7002102F0C9FA11
:1009A000400320684FF0000172D002F0C2FA90FAC2
:1009B000A0F0B0FA80F1286842036ED090FAA0F05F
:1009C000B0FA80F0814204D100221146206802F082
:1009D000D1FA0121206802F0ACFA400320684FF000
:1009E00001015DD002F0A5FA90FAA0F0B0FA80F112
:1009F0002868420359D090FAA0F0B0FA80F0814202
:100A000004D100220121206802F0B4FA02212068FA
:100A100002F08FFA400320684FF0020148D002F044
:100A200088FA90FAA0F0B0FA80F12868420344D026
:100A300090FAA0F0B0FA80F0814204D100220221A5
:100A4000206802F097FA0321206802F072FA40034E
:100A500020684FF0030133D002F06BFA90FAA0F057
:100A6000B0FA80F1286842032FD090FAA0F0B0FAD3
:100A700080F0814204D100220321206802F07AFA3A
:100A80002068816811F0010F22D0ACE000E004E0A2
:100A900002F04FFAC0F384618DE7C0F3846091E700
:100AA00002F047FAC0F38461A2E7C0F38460A6E7CE
:100AB00002F03FFAC0F38461B7E7C0F38460BBE79C
:100AC00002F037FAC0F38461CCE7C0F38460D0E76A
:100AD0002A7B296850F8B03FC1F3120C23EA0C03BB
:100AE00002F0180C754A22FA0CF20A401343036014
:100AF000E968414577D1286841031CD090FAA0F1FC
:100B0000B1FA81F1491C01F01F0109294FEA403176
:100B100032D8002912D000BF90FAA0F1B1FA81F1C9
:100B200001F1010101F01F0106FA01F609D100BF30
:100B3000C0F3846109E0C0F38461E3E7C0F384613A
:100B4000EEE790FAA0F1B1FA81F101F1010101F0B3
:100B50001F0146EA816102D1C0F3846003E090FA8C
:100B6000A0F0B0FA80F000F1010000F01F0000EBEF
:100B7000400041EA005132E000290ED090FAA0F185
:100B8000B1FA81F101F1010101F01F0106FA01F64C
:100B900006D100BFC0F3846106E0C0F38461F1E7D1
:100BA00090FAA0F1B1FA81F101F1010101F01F0108
:100BB00046EA816102D1C0F3846003E090FAA0F0BC
:100BC000B0FA80F000F1010000F01F003C4A00EB99
:100BD000400002EB005041EA000141F00071AA68B8
:100BE000206802F0B8F937482B6803423FF466AE3C
:100BF00021684FF0A04C3448344E354D614501D04A
:100C0000A94201D1024600E032469268DFF8C48072
:100C100002F0E072434503D0DFF8BC80434521D1A8
:100C20005FEA02281ED4614506D02C4B99427FF41E
:100C300045AEA94200D0304642F40001826822F05D
:100C4000E0720A438260264826490068B0FBF1F052
:100C5000401C00EB4000800000E0401E0090002897
:100C6000FBD12BE6DFF8808043450FD15FEAC21845
:100C70000CD4A94202D11D4B9942F2D0614502D059
:100C8000A94200D0304642F080710CE0DFF860806D
:100C90004345E6D15302E4D4A942E2D0614500D0F5
:100CA000304642F48001826822F0E0720A4382609A
:100CB00004E6000000007F4000F0FF03FFFF070094
:100CC000000020FE000008800003005000070050D4
:100CD00000010050000021C31000C0900006005029
:100CE00010000020400D0300000052C70005005016
:100CF000000084CBF8B54FF0000504002E460095A7
:100D000002D0E06D10B107E00120F8BD204600F0F0
:100D100009F9266684F8586020688168C1F340713B
:100D200019B18168734A1140816020688168C1F3FC
:100D3000007189B98168704A114041F08051816029
:100D40006E486F490068B0FBF1F04000801C00E085
:100D5000401E00900028FBD120688168C1F300711B
:100D600041B9E16D41F01001E165216E41F00101F1
:100D70002166012502F0E7F8E16DC90600D430B123
:100D8000E06D40F01000E06501252846F8BDE06DFB
:100D900020F4807040F00200E0652068816811F066
:100DA000010F27D14FF0A043564A984201D09042FC
:100DB00004D19968966801F001010AE052498968F6
:100DC000524E01F00101B66806F001063143504E63
:100DD000B66806F0010631430CD1984201D090422A
:100DE00001D14C4800E04C486168826822F47C12D2
:100DF0000A438260E168E06B627F0843A16841EAD0
:100E00004231084394F8241040EA0140012904D1FA
:100E1000218D424A02EB41410843E16A29B101F4C4
:100E20007871226B014342EA01002268D1683C4B91
:100E300019400143D16020680169626B21F0406173
:100E400011430161206802F07AF870BB207F94F8AA
:100E500038102268800340EA4100D16844F202035E
:100E600099430143D16020690028206801690AD0B4
:100E700041F480310161206850F8C01F22696FF38E
:100E80000D01114307E021F480310161206850F821
:100E9000C01F6FF30D01016094F8400001280CD0D1
:100EA0002068016921F00101016160690128206861
:100EB000016B21F00F0111D013E0D4E911010843B7
:100EC000D4E913121143084321680A6940F2FC7304
:100ED0009A43104340F001000861E6E7226A521E7F
:100EE00011430163E06D20F0020040F00100E06575
:100EF0004BE70000C0FFFF5FC0FFFF7F1000002036
:100F0000400D030000010050000400500005005097
:100F10000006005000030050000700500000FEFFD4
:100F20000740F0FF10B596B0044654216846FFF71D
:100F30006CFA2068B0F1A04F13D14FF4004000903C
:100F400080031190684600F027FF08B1FFF73FFBD0
:100F50000548C16C41F40051C164C06C00F40050FC
:100F6000159016B010BD000000100240F0B4016CE6
:100F70000C6801680D6890F8442002F01F060422F6
:100F800002FA06F3234211D06B070FD50B689B06BC
:100F900003D40B6823F004030B6090F8441001F0B5
:100FA0001F018A40016C4A60016B1DE0022303FAB5
:100FB00006F727424FF0000C4FF0010218D0AF07A0
:100FC00016D50C68A40605D40C6824F00A040C603D
:100FD00080F8252090F8441001F01F018B40016C2F
:100FE0004B6080F824C0C16A00291AD0F0BC0847C1
:100FF0000823B340234214D02B0712D50B6823F0EB
:101000000E030B6090F84410036C01F01F0102FA0C
:1010100001F15960C26380F8252080F824C0416B3B
:10102000E2E7F0BC7047000070B504000CD02B4A1A
:1010300021681420914209D2294A0A44B2FBF0F0F7
:101040008000606427480AE0012070BD234A5242B4
:101050000A44B2FBF0F08000606420480838206445
:10106000022084F825000A6847F6F0708243D4E92C
:1010700002031843D4E904352B431843A3691843EA
:10108000E3691843236A1843104308602046FFF7BA
:101090006BFAA0680025B0F5804F00D16560A16CA7
:1010A00020790860D4E9130141606068401E03287C
:1010B00008D82046FFF778FA606D0560D4E916017C
:1010C000416002E06565A565E565E563012084F89A
:1010D000250084F82450002070BD00000804024060
:1010E000F8FFFDBF0000024030B590F85C30012BE6
:1010F00007D0022B05D0016E41F0020101660120EC
:1011000030BD0468A36D4D0701D0DD071DD011F07F
:10111000380F01D09D0718D511F4E07F01D05D078D
:1011200013D511F4F05F01D01D070ED511F4604FF7
:1011300001D0DD0609D511F4403F01D09D0604D54C
:1011400011F47C0F05D05D0603D4E56D45F0010573
:10115000E5654C0701D0DC071DD111F0380F01D037
:101160009C0718D411F4E07F01D05C0713D411F46C
:10117000F05F01D01C070ED411F4604F01D0DC06E3
:1011800009D411F4403F01D09C0604D411F47C0F23
:1011900006D05B0604D50368DC6D44F00204DC6510
:1011A0000B0604D5036853F8DC4F14431C60CB05D1
:1011B00004D5036853F8E04F14431C600068426D87
:1011C0000A434265002030BD70B5044690F85C00CB
:1011D000022803D0206E40F0080007E02068D0F815
:1011E000C4309B0205D5206E40F4007020660120BB
:1011F00070BDD0F8C400C0F301452B462046FFF770
:10120000F5F921680120A840C1F8CC00A0650020B4
:1012100070BD10B590F85C20012A07D0022A05D0D5
:10122000016E41F002010166012010BD0A687AB129
:101230000B7B0A690C7A42EA43734A69406C49683D
:1012400042EA847200EBC100C0E90032002010BD08
:101250000B7A4A690C8A42EA83720B7B006CDB06CC
:10126000496843EA04431A4340F82120EEE730B5C9
:1012700090F85C50039C012D05D0016E41F00401F3
:101280000166012030BD0901006841EA820141EA9E
:10129000430150F8802F214322F03F0211430160A7
:1012A000002030BD70477047F0B590F85C400025D5
:1012B000022C03D0016E41F0080160E0046840296F
:1012C00046D0D4F89860360756D0D4F89860F60126
:1012D00004D5D4F88060F60500D50125D4F89840EF
:1012E000C4F301246619C46C06EBC60504EBC504FF
:1012F000256815F080455560256843D025F0604588
:10130000156025682C4F05F00055956020CC05F040
:101310000045156134F8045BADB2D56154F8045C46
:10132000C5F30345D56054F8045C05F48015556198
:1013300054F8045C05F40015956154F8045CC5F399
:101340000665156254F8045CED0F5562002522E035
:10135000D4F8906036070FD0D4F89060F60104D529
:10136000D4F88060B60500D50125D4F89040C4F3C8
:1013700001246619846CB7E7016E41F4807101663F
:101380000120F0BDC5F38A45BAE700BF14F805C0D7
:1013900003F805C06D1CD2F80CC017F80CC0AC45A2
:1013A000F4D80068402903D0C0F89C600020F0BD4C
:1013B000C0F89460FAE70000123A000870472DE97F
:1013C000F05F04460068016D426D01F4E05102EAED
:1013D0000108016D426D01F0070102EA0109016D8A
:1013E000426D01F0380102EA010A016D476D01F416
:1013F00071010F40016D426D01F46021456D02EAFB
:10140000010B016DCE43710607D4E943490604D4AC
:10141000402101652046FFF7D1FFF0050ED4E843D7
:10142000C0050BD42068D0F8D820D0F8E0101140C7
:101430004FF480720265204600F087FAB8F1000090
:1014400005D0216808654146204600F080FAB9F1D0
:10145000000005D0216808654946204600F0F6F9ED
:10146000BAF1000005D0216808655146204600F019
:1014700053FAB00509D4E843800506D421684FF437
:1014800000700865204600F063FA30060DD4E8438A
:1014900000060AD42068D0F8D420D0F8DC1011401F
:1014A00080220265204600F051FAB00409D4E843D6
:1014B000800406D421684FF400500865204600F0EF
:1014C00043FA300409D4E843000406D421684FF4F9
:1014D00000400865204600F036FA70040AD4E8435C
:1014E000400407D421684FF480400865206E40F026
:1014F00080002066BBF1000005D0216808655946D0
:101500002046FFF7D0FE27B120680765206E3843DC
:101510002066206E002802D02046FFF7C3FEBDE8FB
:10152000F09F00002DE9F041040006D0DFF8F481BF
:1015300094F85C00002518B107E00120BDE8F081B7
:1015400084F85D50204600F0F9F82068816921F0A8
:101550001001816100F022FB0646032705E000BF71
:1015600000F01CFB801B0A2811D820688069000746
:10157000F6D42068816941F00101816100F00EFB21
:1015800006460BE000F00AFB801B0A2806D9206EF5
:1015900040F00100206684F85C70CEE72068806926
:1015A000C007EFD02068816941F0020181612168A4
:1015B000414502D15C4960680860207C01282068B0
:1015C000816937D041F040018161607C0128206849
:1015D000816932D021F480418161A07C012820689A
:1015E00081692DD041F48051816120688169A268B0
:1015F00021F44071114381612068816921F0A401C7
:1016000081612068016921F010010161E068012811
:1016100019D010B302281BD02068816941F08001E5
:1016200081612068016941F010010161E0680328CF
:101630000ED012E021F04001C6E741F48041CBE733
:1016400021F48051D0E72068816941F0040103E072
:101650002068816941F020018161207EE2694006B5
:101660006FF0FF0101EB0222A0F100701043226A2B
:10167000A38A521E10430A0202EB03431843236855
:10168000D861A068B0F5407F10D1D4E90A0301EB1E
:101690000321401E0843216B131303EB0111084380
:1016A000A18C02EB014108432168C860206850F812
:1016B000C01FE26B114301601D4A21681B48914223
:1016C00000D11C481C4A914201D100F5D46020642D
:1016D00051F8802FA38E22F4F81242EA03420A60E6
:1016E00000F170016164216851F8802F94F838305E
:1016F00022F0706242EA03620A6000F1B001A16464
:10170000D831E164D831216518316165D83100E004
:1017100020C08842FCD3A5652566012084F85C00C2
:1017200000200BE7006400400065004000A400407A
:101730000068004050A70040006C00402DE9F041D7
:101740009CB00446142115A8FEF75FFE542168469C
:10175000FEF75BFE384B21689A1400255003374E84
:101760000227374C4FF0090899422FD10E90009272
:10177000684600F011FB08B1FEF729FF3068401CF5
:101780003060012807D1A06D40F00070A065A06D09
:1017900000F000701A90E06C40F00100E064E06C32
:1017A000CDE9167500F001001A904FF4C050CDE954
:1017B0001858159015A94FF0904000F0CBF8002272
:1017C0001146152000F050FA152030E01D4B9942CB
:1017D0002FD10E900092684600F0DEFA08B1FEF7B5
:1017E000F6FE3068401C3060012807D1A06D40F043
:1017F0000070A065A06D00F000701A90E06C40F0E1
:101800000200E064E06CCDE9167500F002001A9069
:101810004FF44050CDE91858159015A90A4800F02A
:1018200099F800221146562000F01EFA562000F0CA
:101830000DFA1CB0BDE8F0810064004000000020FB
:1018400000100240006800400004004870B50446E3
:10185000C8074ED027492068274D40F2FA768842C3
:1018600029D1A5F140032A4640212046FFF71CFD5F
:101870002A68002002F003013240B2F5A46F06D0BE
:10188000B2F5A66F05D0B2F5A86F05D103E01B48ED
:1018900002E01B4800E01B48174A403AFEF731FEC1
:1018A000002201212046FFF71FFC002821D0BDE8BF
:1018B0007040FEF7CDBE144988421AD10E4B0E4A35
:1018C000403B40212046FFF7EFFC2A68002002F051
:1018D00003013240B2F5AA6F07D0B2F5AC6F06D063
:1018E000B2F5AE6FD8D10948D6E70948D4E7094820
:1018F000D2E770BD00640040EC030020140000201B
:10190000340000205400002000680040B400002093
:101910007400002094000020704790F85C100129AA
:1019200005D0016E41F004010166012070470221DB
:1019300080F85C1001688A6922F001028A61002146
:101940000166084670477047704770477047704798
:10195000704700002DE9F04FDFF8209200230126A8
:101960000324A9F1040B85B00F2709F1040AABF198
:10197000040EFAE006FA03F52A407CD091F804C080
:101980000CF0030CBCF1010F02D0BCF1020F26D108
:10199000D0F808C0CDF800C04FEA430C04FA0CF8A8
:1019A000CDF810C0DDF800C02CEA080CCDF800C05E
:1019B000D1F80C80DDF810C008FA0CF8DDF800C092
:1019C00048EA0C08C0F80880D0F804C02CEA050CDE
:1019D0000D79C5F300159D4045EA0C0545600D796C
:1019E000ED43AD070ED0C5684FEA430804FA08FC82
:1019F00025EA0C05D1F808C00CFA08FC4CEA050CE5
:101A0000C0F80CC00D7905F00305022D16D1DD08D4
:101A100000EB850CCDF808C0DCF820805D074FEAAC
:101A2000D56C07FA0CF528EA05080D6905FA0CF5DE
:101A3000DDF808C045EA0805CCF8205005684FEAF3
:101A4000430CCDF808C004FA0CFC25EA0C0591F80B
:101A500004C00CF00308DDF808C008FA0CF848EAE6
:101A60000508C0F800804D6815F4403F7CD0444D17
:101A7000D5F860C000E077E04CF0010CC5F860C01C
:101A80002D6E23F0030C05F0010500953D4D6544D6
:101A90000295AD684FEA837C4FEA1C7807FA08FC90
:101AA00025EA0C05B0F1904F06D0DFF8DCC06045A8
:101AB00005D14FF0010C20E04FF0000C1DE0DFF8E5
:101AC000CCC0604502D14FF0020C16E0DFF8C0C078
:101AD000604502D14FF0030C0FE0DFF8B8C060455D
:101AE00002D14FF0040C08E0DFF8ACC0604502D131
:101AF0004FF0050C01E04FF0060C0CFA08FC4CEA24
:101B0000050C029DC5F808C0D9F80050CC46D1F8A4
:101B1000048095435FEAC82800D51543CCF80050EF
:101B2000DAF80050D446D1F8048095435FEA88285B
:101B300000D51543CCF80050DBF80050DC46D1F856
:101B4000048095435FEA883800D51543CCF80050EF
:101B5000DEF80050F446D1F8048095435FEAC838B7
:101B600000D51543CCF800505B1C0A6832FA03F527
:101B70007FF400AF05B0BDE8F08F0000080401401D
:101B80000010024000000140000400480008004826
:101B9000000C00480010004800140048014880680C
:101BA0007047000004000020024881684268114428
:101BB000816070470400002010B50024032000F06D
:101BC00073F80F2000F008F808B1012401E000F0DC
:101BD00025F8204610BD000070B50E4E05460024C5
:101BE000706898B14FF47A71B1FBF0F00A49096856
:101BF000B1FBF0F000F040FE40B9102D06D20022FB
:101C00002946501E00F030F8356000E001242046DF
:101C100070BD000004000020100000200A4882B0BF
:101C2000016E41F001010166016E01F001010091B8
:101C3000816D41F080518165806D00F08050009091
:101C400002B000F0A1B8000000100240002809DB3B
:101C500000F01F02012191404009800000F1E020C6
:101C6000C0F8001170470000F0B40E4B1B680C4622
:101C7000C3F30223C3F10705042D00D90425191D60
:101C8000072901D2002300E0DB1E012606FA05F138
:101C9000491E214099409E40761E16403143F0BCBB
:101CA00001F08BBE0CED00E0064900F00702086869
:101CB0004FF6FF03184040EA0220034A1043086031
:101CC000704700000CED00E00000FA052B492C4B9A
:101CD0000A6832214A432B4940B1B0F5007F0868B9
:101CE00029D020F4C06040F480602CE00868C0F384
:101CF0004120022804D051F8800F20F4807022E0A7
:101D0000D1F8800020F48070C1F88000086820F4C9
:101D1000C06040F400700860B2FBF3F0401C00E0CB
:101D2000401E4A69520501D50028F9D1486940058D
:101D30000AD503207047C0F34120022806D051F88D
:101D4000800F40F48070086000207047D1F8800058
:101D500040F48070C1F88000086820F4C06040F44E
:101D600000700860B2FBF3F0401C00E0401E4A69BE
:101D70005205DBD50028F9D1D8E70000100000207B
:101D800040420F00007000400248816841F48041E9
:101D900081607047007000402DE9F84304460068F8
:101DA0000026BB4D00035ED5A86D0027C00008D4F7
:101DB000A86D40F08050A865A86D012700F0805004
:101DC0000090DFF8D092D9F8001041F48071C9F882
:101DD0000010FFF7E3FE804606E000BFFFF7DEFEDF
:101DE000A0EB080002282BD8D9F80000C005F5D5D3
:101DF000D5F8900010F4407014D0216D814211D0BC
:101E0000D5F89000D5F8901020F4407041F480315E
:101E1000C5F89010D5F8901021F48031C5F89010D5
:101E2000C5F89000C00711D0FFF7B8FE804641F218
:101E3000883907E0FFF7B2FEA0EB0801494501D958
:101E400003260BE0D5F890008007F3D5D5F8900075
:101E5000216D20F440700843C5F890001FB1A86DB3
:101E600020F08050A8652078C00707D0D5F88800FA
:101E7000616820F003000843C5F8880020788007D7
:101E800007D5D5F88800A16820F00C000843C5F8F4
:101E900088002078400707D5D5F88800E16820F051
:101EA00030000843C5F888002078000707D5D5F82A
:101EB0008800216920F0C0000843C5F88800207818
:101EC000C00607D5D5F88800616920F44070084342
:101ED000C5F888002078800607D5D5F88800A16964
:101EE00020F440600843C5F888002078400607D5F4
:101EF000D5F88800E16920F440500843C5F888000F
:101F00002078000607D5D5F88800216A20F44040E3
:101F10000843C5F888002088C00507D5D5F8880093
:101F2000616A20F440300843C5F8880020688003C7
:101F300007D5D5F89C00A16A20F003000843C5F836
:101F40009C002088800507D5D5F88800E16A20F438
:101F500040200843C5F88800208840050FD5D5F8F3
:101F60008800216B20F440100843C5F88800206BDE
:101F7000B0F5801F03D1E86840F48010E860208845
:101F800000050FD5D5F88800616B20F440000843A8
:101F9000C5F88800606BB0F5800F03D1E86840F4A5
:101FA0008010E8602088C0040FD5D5F88800A16BA8
:101FB00020F040700843C5F88800A06BB0F1807F26
:101FC00003D1E86840F48010E86020884FF0006199
:101FD00080040ED5D5F88800E26B20F040601043F5
:101FE000C5F88800E06B884203D1E86840F48010AF
:101FF000E860208840040ED5D5F88800226C20F0D7
:1020000040601043C5F88800206C884203D1E8681E
:1020100040F48010E860208800040FD5D5F88800CF
:10202000616C20F040500843C5F88800606CB0F146
:10203000805F03D1E86840F48030E8602068C00326
:102040000FD5D5F88800A16C20F040400843C5F8B2
:102050008800A06CB0F1804F03D1E86840F4803074
:10206000E860206840030FD5D5F89C00E16C20F4AF
:1020700040100843C5F89C00E06CB0F5001F03D188
:10208000E86840F48010E8603046BDE8F88300005E
:1020900000100240007000402DE9F0470E46050098
:1020A0004FF0000725D0DFF8AC81D8F8000000F031
:1020B0000F00B0420CD2D8F8001021F00F013143CC
:1020C000C8F80010D8F8000000F00F00B04210D19E
:1020D0002968614CC80741F2883A5AD06868DFF82D
:1020E0007C91032808D0022820682DD040050028C4
:1020F0002CDB0120BDE8F08720688001F9D5E0687D
:1021000000F00302E068C0F30310401C032A19D05A
:10211000534A00BFB2FBF0F0E268C2F3062250431C
:10212000E268C2F34162521C5200B0FBF2F0484533
:1021300017D9A06810F0F00F0CD0880711D5A86847
:1021400040B10EE0474AE5E78003D0E700F0B6F87B
:10215000484506D9A06820F0F00040F08000A0605B
:102160008027A068696820F003000843A060FFF79B
:1021700015FD814606E000BFFFF710FDA0EB090149
:1021800051453AD8A068696800F00C00B0EB810FA7
:10219000F2D12868810714D5400703D5A06840F420
:1021A000E060A0602878000705D5A06820F46050A2
:1021B00040F4E060A060A068A96820F0F000084347
:1021C00004E0802F03D1A06820F0F000A060D8F8D0
:1021D0000010404601F00F01B14216D9016821F00C
:1021E0000F0131430160FFF7D9FC074607E000BF4C
:1021F000FFF7D4FCC11B514501D903207AE7D8F879
:10220000000000F00F00B042F2D12878400705D559
:10221000A068E96820F4E0600843A060287800071F
:1022200006D5A068296920F4605040EAC100A0608A
:1022300000F044F8A1680C4AC1F30311515C01F0AD
:102240001F01C8400949086009480068BDE8F04717
:10225000FFF7C2BC002002400010024000B4C404DA
:102260000024F40000127A004A3A0008100000200E
:10227000040000200548064900688968054AC1F342
:102280000221515C01F01F01C8407047100000207E
:10229000001002405A3A000805480649006889685B
:1022A000054AC1F3C221515C01F01F01C8407047CB
:1022B00010000020001002405A3A0008184910B5DA
:1022C0008868C0F381021748012A0BD08A6843103E
:1022D000C2F38102022A06D08A68C2F38102032A6D
:1022E00003D0002010BD184610BDCA6802F00304D8
:1022F000CA68C2F30312521C032C02D0B0FBF2F0E6
:1023000001E0B3FBF2F0CA68C968C2F30622504389
:10231000C1F34161491C4900B0FBF1F010BD000060
:10232000001002400024F4002DE9F84304007AD0A4
:102330002078F84DC00747D0A868E96800F00C0085
:1023400001F003010C2802D0082817D001E003296E
:1023500014D06068B0F5803F17D0B0F5A02F286882
:1023600017D020F480302860286820F4802028606E
:102370006068E0B1FFF712FC064614E028688003AD
:1023800022D560680028D2D01EE0286840F4803052
:10239000EDE740F480202860F7E700BFFFF7FEFB81
:1023A000801B642870D828688003F7D50CE0FFF7FD
:1023B000F5FB064605E000BFFFF7F0FB801B642835
:1023C000F0D828688003F7D4207880074CD5A86817
:1023D000E96800F00C0001F003010C2802D0042889
:1023E0000DD001E002290AD0E068002828682BD02F
:1023F00040F480702860FFF7D1FB064619E028689A
:10240000400502D5E068002891D06868217C20F062
:10241000FE4040EA01606860BF480068FFF7DCFBEF
:10242000002800D120E072E1FFF7B8FB801B0228F2
:10243000B8D828684005F7D56868217C20F0FE40B0
:1024400040EA016068600FE020F480702860FFF7C8
:10245000A5FB064605E000BFFFF7A0FB801B022896
:10246000A0D828684005F7D42078000729D56069EE
:102470000028D5F8940013D040F00100C5F894006E
:10248000FFF78CFB064606E090E000BFFFF786FBF7
:10249000801B022886D8D5F894008007F6D510E076
:1024A00020F00100C5F89400FFF778FB064604E031
:1024B000FFF774FB801B022878D8D5F894008007BA
:1024C000F6D42078400761D5A86D0026C00008D456
:1024D000A86D40F08050A865A86D012600F08050DE
:1024E00000908E480168C90511D40168804641F406
:1024F00080710160FFF752FB074604E0FFF74EFBD7
:10250000C01B022852D8D8F80000C005F6D5A06834
:10251000012815D00528D5F8900016D020F001002C
:10252000C5F89000D5F8900020F00400C5F89000A0
:10253000A06841F28838B8B1FFF730FB07460EE0DB
:10254000D5F8900040F00100F0E740F00400C5F835
:102550009000F5E7FFF722FBC11B414526D8D5F8CF
:1025600090008007F6D50CE0FFF718FB074604E063
:10257000FFF714FBC11B414518D8D5F89000800720
:10258000F6D41EB1A86D20F08050A8652078800692
:1025900029D5A0690028D5F8980013D040F0010093
:1025A000C5F89800FFF7FAFA064606E075E000BFA6
:1025B000FFF7F4FA801B02286FD8D5F8980080073F
:1025C000F6D510E020F00100C5F89800FFF7E6FA14
:1025D000064604E0FFF7E2FA801B02285DD8D5F832
:1025E00098008007F6D4E069F0B3A968C1F38101CF
:1025F00003295DD00228286820F08070286003D06D
:10260000FFF7CCFA04464BE0FFF7C8FA064604E0B1
:10261000FFF7C4FA801B02283FD828688001F7D44E
:10262000F4E908016FF00F0202EB01110843218A5F
:102630005204490802EB4151A26841EA02210843D1
:10264000217D4FF07E42490802EB41610843217B26
:1026500040EAC160E968324A11400843E8602868EE
:1026600040F08070286000E05EE0E86840F0807034
:10267000E860FFF793FA044605E000BFFFF78EFA23
:10268000001B022809D828688001F7D54CE000BF5C
:10269000FFF784FA001B022802D90320BDE8F88363
:1026A00028688001F4D4E8681E490840E8603BE0EF
:1026B0000128F3D0E868226A00F00301914226D194
:1026C000616A00F0F0020901103991421FD1A26A3B
:1026D00000F4FE41B1EB022F19D194F82C2000F048
:1026E0007841B1EBC26F12D1218E00F4C0024908CB
:1026F0004905A1F50011914209D194F8341000F078
:10270000C06049084906A1F1007181420CD0012046
:10271000C4E70000001002400400002000700040E8
:102720000C809F01FCFFEEFE0020B7E770B50400AF
:1027300009D0606A002540B125616561A56294F801
:102740005D0040B10CE0012070BD6068B0F5827F93
:10275000F4D0E561F2E784F85C50204600F05CF8C4
:10276000022084F85D002068016821F040010160CA
:10277000E1684FF4E062914201D9002001E04FF49A
:102780008050B1F5706F02D0914200D0A562A1884F
:10279000228901F4827102F404421143227C02F086
:1027A00002021143227D02F001021143228B02F446
:1027B00000721143227F02F03802114394F8202066
:1027C00002F080021143228D02F40052114322686C
:1027D0001160A169042202EA114194F8242000F456
:1027E000805002F01002114394F8342002F00802E5
:1027F0001143A28902F470621143014320684160D1
:102800002068C16921F40061C1612566012084F856
:102810005D00002070BD000010B586B00446142194
:102820006846FDF7F2FD1249206888421ED1114822
:10283000016E41F480510166016E01F480510591F1
:10284000C16C41F00101C164C06C694600F0010037
:102850000590E0200090022001900020029003905B
:10286000052004904FF09040FFF774F806B010BDBB
:10287000003001400010024010B5401EB0F1807FD2
:1028800001D3012010BD4FF0E02460610F216017DB
:1028900001F093F80020A06107202061002010BD06
:1028A000704770477047704770477047F0B590F8B1
:1028B0003C20012A43D0012580F83C50022280F8B8
:1028C0003D2003685A689C681E4E1F4FDFF87CC08D
:1028D000B34203D0BB4201D0634504D122F4700E51
:1028E0004A6842EA0E02DFF868E002EA0E02D1F816
:1028F00000E04EEA020EC3F804E00268B24212D0D1
:10290000B2F1804F0FD0134B9A420CD0124B9A4227
:1029100009D0124B9A4206D0BA4204D0104B9A42C8
:1029200001D0624504D1896824F080031943916085
:1029300080F83D50002180F83C100846F0BD022090
:10294000F0BD0000002C0140003401400050014067
:102950008FFFFFFD0004004000080040000C004015
:1029600000400140704710B5040003D094F83D00CA
:1029700010B107E0012010BD002084F83C00204683
:1029800000F022F8022084F83D00211D206800F0AC
:10299000CDFC012084F8480084F83E0084F83F0014
:1029A00084F8400084F8410084F8420084F8430031
:1029B00084F8440084F8450084F8460084F8470011
:1029C00084F83D00002010BD08B500680B4988421E
:1029D00012D10B48016E41F400610166006E0022C5
:1029E00000F40060009011461920FFF73DF9BDE8A2
:1029F00008401920FFF72AB908BD0000002C01404B
:102A00000010024090F83D10012901D001207047CC
:102A1000022180F83D100168CA6842F00102CA60D4
:102A200000681349884214D0B0F1804F11D0114989
:102A300088420ED0104988420BD01049884208D0F5
:102A40000F49884205D00F49884202D00E4988427A
:102A500007D181680D4A1140062906D0B1F5803FA3
:102A600003D0016841F001010160002070470000BF
:102A7000002C01400004004000080040000C004011
:102A800000340140004001400050014007000100B7
:102A900070B5044690F83C00002501281CD00126A2
:102AA00084F83C60022084F83D0022689068334B33
:102AB000184020F47F4090600868B0F5005F2ED089
:102AC00016DC402849D009DCD0B1102818D02028C5
:102AD00016D0302849D113E0022070BD50282AD0EA
:102AE000602830D070280FD0B0F5805F3DD13DE038
:102AF00010F00F0F39D10111A1F58031072934D819
:102B000022680146104625E0CB68D1E90121206802
:102B100000F07EFC2068816841F0770109E0CB6815
:102B2000D1E90121206800F073FC2068816841F43C
:102B3000804181601AE0CA684968206800F07CFC26
:102B40005021206806E0CA684968206800F085FCCA
:102B50006021206800F066FC08E0CA6849682068C7
:102B600000F06AFC40212068F4E7012584F83D600C
:102B7000002084F83C00284670BD000088FFCEFF8E
:102B800070472DE9F04104460068C66805694FF0BA
:102B90000007A90713D5B10711D5F91E016101205E
:102BA0002077206880698007204602D0FFF7E8FF81
:102BB00004E000F0B7F8204600F0B5F82777680782
:102BC00016D5700714D521686FF004000861022043
:102BD00020772068806910F4407F204602D0FFF7FC
:102BE000CFFF04E000F09EF8204600F09CF8277725
:102BF000280715D5300713D521686FF00800086144
:102C0000042020772068C0698007204602D0FFF7A3
:102C1000B7FF04E000F086F8204600F084F827773C
:102C2000E80616D5F00614D521686FF0100008618B
:102C3000082020772068C06910F4407F204602D029
:102C4000FFF79EFF04E000F06DF8204600F06BF8FF
:102C50002777E80708D0F00706D021686FF0010059
:102C60000861204600F060F8280601D4A80408D5C1
:102C7000300606D521686FF4025008612046FFF740
:102C800010FEE80508D5300606D521686FF480707F
:102C900008612046FFF704FE680608D5700606D5D1
:102CA00021686FF040000861204600F047F8A80650
:102CB00008D5B00606D521686FF0200008612046CF
:102CC000FFF7F0FDE80208D5F00206D521686FF4A1
:102CD000801008612046FFF7E7FDA80208D5B00282
:102CE00006D521686FF4001008612046FFF7DBFD70
:102CF000680208D5700206D521686FF4800008616B
:102D00002046FFF7D2FD28020AD5300208D52168F7
:102D10006FF4000008612046BDE8F041FFF722BED5
:102D2000BDE8F0817047704700680349884201D1CF
:102D300000F0A8BA70470000002C0140704790F8DE
:102D40008410012918D0012180F884102421C0F8B2
:102D5000881001680A680B6823F001030B6022F0F9
:102D6000005100224266036819602021C0F88810D3
:102D700080F88420104670470220704770B50446E2
:102D800090F8840001281DD0012084F884002420BC
:102D9000C4F8880020680568026822F00102026019
:102DA0002068826822F060620A438260204600F058
:102DB00067FB206805602020C4F88800002084F8A4
:102DC000840070BD022070BD70B5044690F8840088
:102DD00001281DD0012084F884002420C4F8880034
:102DE00020680568026822F001020260206882689B
:102DF00022F060420A438260204600F041FB2068D6
:102E000005602020C4F88800002084F8840070BD8C
:102E1000022070BD10B5040003D0D4F8880010B1B2
:102E200007E0012010BD002084F88400204600F057
:102E300027F82420C4F888002068016821F00101E7
:102E40000160A06A10B1204600F03CFB204600F073
:102E50001DFC0128E6D02068416821F490414160C2
:102E60002068816821F02A0181602068016841F0B2
:102E7000010101602046BDE8104000F087BB000062
:102E800070B59CB00646142115A8FDF7BEFA542172
:102E90006846FDF7BAFA2249306888423ED10120DF
:102EA0000025CDE900056846FEF776FF08B1FDF77D
:102EB0008EFB1C49086E40F480400866086E00F4E2
:102EC00080401A90C86C40F00100C864C86C15A915
:102ED00000F001001A904FF4C06015900220CDE977
:102EE00016050720CDE918504FF09040FEF732FD4F
:102EF0000E4C0D4820601820C4E901058020C4E96B
:102F000003506561A561E56120462562FEF78CF8F6
:102F100008B1FDF75CFBC6F88040A6621CB070BD2E
:102F20000038014000100240080002404C0300201D
:102F3000FEE700EB8100006E00F0F840704780680B
:102F4000C0F3C00070478068C0F38000704780689D
:102F5000C0F380007047042303EAD15310B518442E
:102F60004369C1F3045107248C40A3438A401343AF
:102F7000436110BD00EB8100016E21F0004111435F
:102F80000166704730B58BB0002408940994202165
:102F900068460A94FDF739FA1C484FF0A041042511
:102FA00001604FF44031C0E90114C4600461C0E91C
:102FB0000545047744770121016280F82440C4620A
:102FC000046380F83840C46380F84040FDF792FE07
:102FD00008B1FDF7FCFA08A90C480894FDF7A4FB1A
:102FE00008B1FDF7F4FA0A4800900620CDE9010483
:102FF0007F200594CDE9030569460448FDF744FCAC
:10300000002801D0FDF7E3FA0BB030BDD40000205A
:10301000000084CB0D4808B5816C41F00401816447
:10302000816C01F004010091816C41F00101816427
:10303000806C002200F00100009011460B20FEF78A
:1030400013FEBDE808400B20FEF700BE0010024052
:1030500070B5144812490022E0E80212012140F83C
:10306000082B0A2340F8042C00F8011B032400F865
:10307000011B112500F8021BE0E80231062338C0CD
:103080001AC0082140F83419C0E90E120548FEF7AD
:1030900049FA002803D0BDE87040FDF798BA70BD2A
:1030A000006400404001002070B51448124900221D
:1030B000E0E80212012140F8082B0A2340F8042C12
:1030C00000F8011B032400F8011B112500F8021B66
:1030D000E0E80231062338C01AC0082140F834194C
:1030E000C0E90E120548FEF71DFA002803D0BDE81E
:1030F0007040FDF76CBA70BD00680040A40100206C
:103100000D4808B5C16C41F02001C164C16C01F0EB
:1031100020010091C16C41F00101C164C16C01F05A
:1031200001010091C16C41F00201C164C06C00F06A
:103130000200009008BD000000100240124810B5C7
:10314000104901604FF48271416000214FF44072D8
:10315000C0E902124FF400720161C0E905121822A1
:10316000C0E9072107224162C0E90A120163082170
:103170004163FFF7DBFA002803D0BDE81040FDF7FC
:1031800026BA10BD003001400802002010B588B0FA
:103190000024184805940694039404940094019420
:1031A000134902940160AA21C0E901144FF47A7115
:1031B000C0E9031444618461FFF7D5FB08B1FDF752
:1031C00006FA4FF48050039003A90A48FFF760FC09
:1031D00008B1FDF7FCF90094019469460548029492
:1031E000FFF764FB002801D0FDF7F1F908B010BD2E
:1031F000002C01406C020020184810B516490160EF
:103200004FF4E1314160002181600C22C160C0E9CE
:1032100004128161C161016241628162FFF7FAFDBE
:1032200008B1FDF7D4F900210C48FFF7CDFD08B136
:10323000FDF7CDF900210948FFF7A0FD08B1FDF722
:10324000C6F90648FFF77BFD002803D0BDE8104013
:10325000FDF7BDB910BD000000380140B8020020E4
:1032600010B50548FFF7CEFB0448FDF706FABDE8A8
:1032700010400348FDF701BA6C0200204001002015
:10328000A401002004489FED030A80ED000AFDF729
:1032900022B90000DB0FC9BF54000020FEE7FEE7A3
:1032A00070477047FEF780BC00B593B03821684680
:1032B000FDF7ABF814210EA8FDF7A7F80020FEF7E4
:1032C00005FD0220C1010391402104910421CDE9B3
:1032D000080100905521CDE90A1007900C900D903F
:1032E0006846FFF721F808B172B6FEE70F200E908E
:1032F00003200F90002010901190129004210EA82E
:10330000FEF7CAFE002801D072B6FEE713B000BD7A
:103310000248016841F470010160704788ED00E0E7
:103320000148FFF72EBC00006C0200202DE9F04F91
:1033300002682E4B2E4E2F4FDFF8BCC02F4C304D65
:103340004FF0804B98420BD0584509D0B04207D07F
:10335000B84205D0604503D0A04201D0A84204D1B4
:1033600022F070084A6842EA0802DFF89880DFF825
:103370009890DFF898A0984211D058450FD0B042ED
:103380000DD0B8420BD0604509D0A04207D04045CF
:1033900005D0484503D0504501D0A84203D122F4BE
:1033A0004076CA6832434E6922F08002324302609E
:1033B0008A68C2620A688262984209D0A04207D035
:1033C000404505D0484503D0504501D0A84201D121
:1033D00009690163012141610169C90703D00169DC
:1033E00021F001010161BDE8F08F0000002C0140D7
:1033F0000004004000080040000C00400034014080
:10340000005001400040014000440140004801409C
:1034100010B5846842EA032224F47F440A4322431D
:10342000826010BD8268034B1A400A4342F00701D4
:10343000816070478FFFCFFF10B5036A046A24F0E4
:1034400001040462846924F0F00444EA021423F0C5
:103450000A020A438461026210BD10B5036A046A5D
:1034600024F010040462846923F0A00324F470445F
:1034700044EA023243EA01118261016210BD000098
:1034800030B5416EB9B1026891689268C1F342618A
:103490000B4B520F9C5CE50003F10804A25CB5FBEA
:1034A000F2F2A0F86A205A5C615CD200B2FBF1F142
:1034B000A0F8681030BD0121A0F86A10F8E70000FC
:1034C0003A3A000890F82810090706D501684A68BA
:1034D000836B22F400421A434A6090F82810C9070F
:1034E00006D001684A68C36A22F400321A434A606F
:1034F00090F82810890706D501684A68036B22F402
:1035000080321A434A6090F82810490706D50168AE
:103510004A68436B22F480221A434A6090F82810CC
:10352000C90606D501688A68C36B22F480521A4323
:103530008A6090F82810890606D501688A68036CAD
:1035400022F400521A438A6090F82810490611D5D7
:1035500001684A68436C22F480121A434A60416C45
:10356000B1F5801F06D101684A68836C22F4C0025D
:103570001A434A6090F82810090606D501684A687F
:10358000C06C22F4002202434A6070472DE9F843E0
:1035900000260446C0F89060FEF700FB80462068D5
:1035A00000684FF0200500076FF07E4713D54346B3
:1035B000002229042046009700F0B4F958B1216890
:1035C00051E8000F20F0800041E80002002AF6D107
:1035D000C4F8885021E020680068400722D543469F
:1035E00000224FF480012046009700F09BF9C8B1FB
:1035F000216851E8000F20F4907041E80002002A91
:10360000F6D12068083050E8001F21F0010140E8A1
:103610000012002AF5D1C4F88C5084F8846003208D
:10362000BDE8F883C4F88850C4F88C5044F86C6F37
:10363000666026760020F3E710B5026852E8001FA6
:1036400021F4907142E80013002BF6D10E4B026872
:10365000083252E8001F194042E80014002CF6D14D
:10366000C16E012908D1016851E8002F22F0100233
:1036700041E80023002BF6D12021C0F88C10002156
:10368000C166416710BD0000FEFFFFEF2DE9F0416C
:103690000446016880682269E36910436269002575
:1036A0001A431043DFF84CC20A68934B1A40024396
:1036B0000A6020684168E26821F44051114341608A
:1036C0002168A069614501D0226A10438A688B4B4A
:1036D0001A4002438A602068C16A626A21F00F01C1
:1036E0001143C1628649236886488B420DD1D0F8C8
:1036F000880010F0030006D0012867D0022854D0BB
:10370000032851D164E001204FE07F498B420BD167
:10371000D0F8880010F00C0047D0042845D00828C5
:1037200052D00C2840D153E078498B420BD1D0F8CD
:10373000880010F0300038D0102847D0202843D01F
:10374000302831D144E072498B420BD1D0F8880047
:1037500010F0C00029D0402838D0802834D0C028AC
:1037600022D135E06B498B420ED1D0F8880010F49D
:1037700040701AD0B0F5807F28D0B0F5007F23D0FC
:10378000B0F5407F10D123E063450DD1D0F888001B
:1037900010F4406009D0B0F5806F17D0B0F5006F1D
:1037A00012D0B0F5406F13D010205B4A5B4F00265B
:1037B0004FF40041634539D160B102280DD004288F
:1037C0000DD0082831D10EE00220EEE70420ECE70E
:1037D0000820EAE7FEF74EFD03E0114603E0FEF79E
:1037E0006DFD01007BD0606A37F810206768B1FB7F
:1037F000F2F007EB4703834269D8B0EB073F66D886
:10380000002308461946FCF757FD090241EA1061FA
:1038100002027808101871413A460023FCF74CFD6B
:103820003F4AA0F54071914257D950E0E3694FF605
:10383000EF788B422BD1092849D2DFE800F0050848
:103840000D48254848480E00FEF714FD01E0FEF73C
:1038500023FD010001D142E01146606A37F81000F3
:10386000B1FBF0F04100606801EB5001B1FBF0F1F9
:10387000A1F1100040452AD84FF6F07201EA02008B
:10388000C1F34201084328E0FEF718FDE1E70928EB
:103890001DD2DFE800F005080D1C1E1C1C1C0E00CC
:1038A000FEF7E8FC01E0FEF7F7FC010001D116E0AD
:1038B0001146606A37F81000B1FBF0F1606801EB67
:1038C0005001B1FBF0F0A0F11001414504D90125F0
:1038D00005E0FEF7F3FCE8E780B22168C86001204C
:1038E000A4F86A0024F8680F2846E6602661BDE85F
:1038F000F081000000800040F369FFCFFFF4FF116A
:1039000000380140001002400044004000480040E0
:10391000004C0040005000400024F400223A00080F
:10392000FFFC0F002DE9F047994617460D46044667
:103930004FF00008089E33E0701C31D0FEF72EF9DE
:10394000A0EB0900B04218D8BEB120680168490751
:1039500026D5802D24D0402D22D0C169C943090726
:103960000DD4082505622046FFF766FEC4F8905086
:1039700084F884800120BDE8F0870320FBE7C0695C
:10398000C04300050CD421684FF400600862204653
:10399000FFF752FE2020C4F8900084F88480ECE702
:1039A0002068C06935EA000004D00020B842C3D0C6
:1039B0000020E0E70120F9E7FEE70907090E0028EB
:1039C00004DB00F1E02080F80014704700F00F00E5
:1039D00000F1E02080F8141D7047FEF7EDF8FFF7C6
:1039E00063FCFFF78DFBFFF715FBFFF731FBFFF7DC
:1039F000C9FAFFF7A3FBFFF7C9FBFFF7FDFBFFF7D2
:103A000053FBFFF72DFCFEE74FF00000E1EE100A3C
:103A100070470001020304050607080C1014182063
:103A20003040010002000400060008000A000C00FB
:103A30001000200040008000000101010103070187
:103A40000000080402040801010100000000000059
:103A5000000001020304060708090000000001023B
:103A600003040000843A000800000020D400000095
:103A700014020008583B0008D4000020EC090000A4
:103A800030020008000000001000000001000000EB
:103A9000000000000024F40000000000000000000E
:103AA0000000000000000000000000000000000016
:103AB0004001002020040000000000000000000081
:103AC00000000000000000000000000000000000F6
:103AD0004001002030040000000000000000000051
:103AE00000000000000000000000000000000000D6
:103AF0004001002040040000000000000000000021
:103B000000000000000000000000000000000000B5
:103B1000A40100205004000000000000000000008C
:103B20000000000000000000000000000000000095
:103B3000A40100206004000000000000000000005C
:103B40000000000000000000000000000000000075
:083B5000A40100207004000034
:04000005080001D915
:00000001FF
